{
	"contracts/test.sol": {
		"NTS": {
			"abi": [
				{
					"inputs": [],
					"name": "getBankslength",
					"outputs": [
						{
							"internalType": "uint256",
							"name": "",
							"type": "uint256"
						}
					],
					"stateMutability": "view",
					"type": "function"
				},
				{
					"inputs": [
						{
							"internalType": "address",
							"name": "_a",
							"type": "address"
						}
					],
					"name": "setBank",
					"outputs": [],
					"stateMutability": "nonpayable",
					"type": "function"
				},
				{
					"inputs": [
						{
							"internalType": "string",
							"name": "_title",
							"type": "string"
						},
						{
							"internalType": "string",
							"name": "_content",
							"type": "string"
						}
					],
					"name": "setPoll",
					"outputs": [],
					"stateMutability": "nonpayable",
					"type": "function"
				},
				{
					"inputs": [
						{
							"internalType": "uint256",
							"name": "_a",
							"type": "uint256"
						},
						{
							"internalType": "bool",
							"name": "pro",
							"type": "bool"
						}
					],
					"name": "votePoll",
					"outputs": [],
					"stateMutability": "nonpayable",
					"type": "function"
				}
			],
			"devdoc": {
				"kind": "dev",
				"methods": {},
				"version": 1
			},
			"evm": {
				"assembly": "    /* \"contracts/test.sol\":2302:3865  contract NTS {\r... */\n  mstore(0x40, 0x80)\n  callvalue\n  dup1\n  iszero\n  tag_1\n  jumpi\n  0x00\n  dup1\n  revert\ntag_1:\n  pop\n  dataSize(sub_0)\n  dup1\n  dataOffset(sub_0)\n  0x00\n  codecopy\n  0x00\n  return\nstop\n\nsub_0: assembly {\n        /* \"contracts/test.sol\":2302:3865  contract NTS {\r... */\n      mstore(0x40, 0x80)\n      callvalue\n      dup1\n      iszero\n      tag_1\n      jumpi\n      0x00\n      dup1\n      revert\n    tag_1:\n      pop\n      jumpi(tag_2, lt(calldatasize, 0x04))\n      shr(0xe0, calldataload(0x00))\n      dup1\n      0x090d23b9\n      eq\n      tag_3\n      jumpi\n      dup1\n      0x5a79e339\n      eq\n      tag_4\n      jumpi\n      dup1\n      0x807c6683\n      eq\n      tag_5\n      jumpi\n      dup1\n      0x9d79a9eb\n      eq\n      tag_6\n      jumpi\n    tag_2:\n      0x00\n      dup1\n      revert\n        /* \"contracts/test.sol\":2882:2957  function setBank(address _a) public {\r... */\n    tag_3:\n      tag_7\n      0x04\n      dup1\n      calldatasize\n      sub\n      dup2\n      add\n      swap1\n      tag_8\n      swap2\n      swap1\n      tag_9\n      jump\t// in\n    tag_8:\n      tag_10\n      jump\t// in\n    tag_7:\n      stop\n        /* \"contracts/test.sol\":2985:3068  function getBankslength() public view returns(uint) {\r... */\n    tag_4:\n      tag_11\n      tag_12\n      jump\t// in\n    tag_11:\n      mload(0x40)\n      tag_13\n      swap2\n      swap1\n      tag_14\n      jump\t// in\n    tag_13:\n      mload(0x40)\n      dup1\n      swap2\n      sub\n      swap1\n      return\n        /* \"contracts/test.sol\":3142:3465  function setPoll(string memory _title, string memory _content) public {\r... */\n    tag_5:\n      tag_15\n      0x04\n      dup1\n      calldatasize\n      sub\n      dup2\n      add\n      swap1\n      tag_16\n      swap2\n      swap1\n      tag_17\n      jump\t// in\n    tag_16:\n      tag_18\n      jump\t// in\n    tag_15:\n      stop\n        /* \"contracts/test.sol\":3586:3853  function votePoll(uint _a, bool pro) public {\r... */\n    tag_6:\n      tag_19\n      0x04\n      dup1\n      calldatasize\n      sub\n      dup2\n      add\n      swap1\n      tag_20\n      swap2\n      swap1\n      tag_21\n      jump\t// in\n    tag_20:\n      tag_22\n      jump\t// in\n    tag_19:\n      stop\n        /* \"contracts/test.sol\":2882:2957  function setBank(address _a) public {\r... */\n    tag_10:\n        /* \"contracts/test.sol\":2929:2934  banks */\n      0x01\n        /* \"contracts/test.sol\":2945:2947  _a */\n      dup2\n        /* \"contracts/test.sol\":2929:2949  banks.push(Bank(_a)) */\n      swap1\n      dup1\n      0x01\n      dup2\n      sload\n      add\n      dup1\n      dup3\n      sstore\n      dup1\n      swap2\n      pop\n      pop\n      0x01\n      swap1\n      sub\n      swap1\n      0x00\n      mstore\n      keccak256(0x00, 0x20)\n      add\n      0x00\n      swap1\n      swap2\n      swap1\n      swap2\n      swap1\n      swap2\n      0x0100\n      exp\n      dup2\n      sload\n      dup2\n      0xffffffffffffffffffffffffffffffffffffffff\n      mul\n      not\n      and\n      swap1\n      dup4\n      0xffffffffffffffffffffffffffffffffffffffff\n      and\n      mul\n      or\n      swap1\n      sstore\n      pop\n        /* \"contracts/test.sol\":2882:2957  function setBank(address _a) public {\r... */\n      pop\n      jump\t// out\n        /* \"contracts/test.sol\":2985:3068  function getBankslength() public view returns(uint) {\r... */\n    tag_12:\n        /* \"contracts/test.sol\":3031:3035  uint */\n      0x00\n        /* \"contracts/test.sol\":3048:3053  banks */\n      0x01\n        /* \"contracts/test.sol\":3048:3060  banks.length */\n      dup1\n      sload\n      swap1\n      pop\n      pop\n        /* \"contracts/test.sol\":2985:3068  function getBankslength() public view returns(uint) {\r... */\n      swap1\n      jump\t// out\n        /* \"contracts/test.sol\":3142:3465  function setPoll(string memory _title, string memory _content) public {\r... */\n    tag_18:\n        /* \"contracts/test.sol\":3302:3307  Polls */\n      0x00\n        /* \"contracts/test.sol\":3313:3405  poll(Polls.length+1, msg.sender, _title, _content, 0, 0, block.timestamp, Status.registered) */\n      mload(0x40)\n      dup1\n      0x0100\n      add\n      0x40\n      mstore\n      dup1\n        /* \"contracts/test.sol\":3331:3332  1 */\n      0x01\n        /* \"contracts/test.sol\":3318:3323  Polls */\n      0x00\n        /* \"contracts/test.sol\":3318:3330  Polls.length */\n      dup1\n      sload\n      swap1\n      pop\n        /* \"contracts/test.sol\":3318:3332  Polls.length+1 */\n      tag_27\n      swap2\n      swap1\n      tag_28\n      jump\t// in\n    tag_27:\n        /* \"contracts/test.sol\":3313:3405  poll(Polls.length+1, msg.sender, _title, _content, 0, 0, block.timestamp, Status.registered) */\n      dup2\n      mstore\n      0x20\n      add\n        /* \"contracts/test.sol\":3334:3344  msg.sender */\n      caller\n        /* \"contracts/test.sol\":3313:3405  poll(Polls.length+1, msg.sender, _title, _content, 0, 0, block.timestamp, Status.registered) */\n      0xffffffffffffffffffffffffffffffffffffffff\n      and\n      dup2\n      mstore\n      0x20\n      add\n        /* \"contracts/test.sol\":3346:3352  _title */\n      dup5\n        /* \"contracts/test.sol\":3313:3405  poll(Polls.length+1, msg.sender, _title, _content, 0, 0, block.timestamp, Status.registered) */\n      dup2\n      mstore\n      0x20\n      add\n        /* \"contracts/test.sol\":3354:3362  _content */\n      dup4\n        /* \"contracts/test.sol\":3313:3405  poll(Polls.length+1, msg.sender, _title, _content, 0, 0, block.timestamp, Status.registered) */\n      dup2\n      mstore\n      0x20\n      add\n        /* \"contracts/test.sol\":3364:3365  0 */\n      0x00\n        /* \"contracts/test.sol\":3313:3405  poll(Polls.length+1, msg.sender, _title, _content, 0, 0, block.timestamp, Status.registered) */\n      dup2\n      mstore\n      0x20\n      add\n        /* \"contracts/test.sol\":3367:3368  0 */\n      0x00\n        /* \"contracts/test.sol\":3313:3405  poll(Polls.length+1, msg.sender, _title, _content, 0, 0, block.timestamp, Status.registered) */\n      dup2\n      mstore\n      0x20\n      add\n        /* \"contracts/test.sol\":3370:3385  block.timestamp */\n      timestamp\n        /* \"contracts/test.sol\":3313:3405  poll(Polls.length+1, msg.sender, _title, _content, 0, 0, block.timestamp, Status.registered) */\n      dup2\n      mstore\n      0x20\n      add\n        /* \"contracts/test.sol\":3387:3404  Status.registered */\n      0x00\n        /* \"contracts/test.sol\":3313:3405  poll(Polls.length+1, msg.sender, _title, _content, 0, 0, block.timestamp, Status.registered) */\n      0x03\n      dup2\n      gt\n      iszero\n      tag_29\n      jumpi\n      tag_30\n      tag_31\n      jump\t// in\n    tag_30:\n    tag_29:\n      dup2\n      mstore\n      pop\n        /* \"contracts/test.sol\":3302:3406  Polls.push(poll(Polls.length+1, msg.sender, _title, _content, 0, 0, block.timestamp, Status.registered)) */\n      swap1\n      dup1\n      0x01\n      dup2\n      sload\n      add\n      dup1\n      dup3\n      sstore\n      dup1\n      swap2\n      pop\n      pop\n      0x01\n      swap1\n      sub\n      swap1\n      0x00\n      mstore\n      keccak256(0x00, 0x20)\n      swap1\n      0x08\n      mul\n      add\n      0x00\n      swap1\n      swap2\n      swap1\n      swap2\n      swap1\n      swap2\n      pop\n      0x00\n      dup3\n      add\n      mload\n      dup2\n      0x00\n      add\n      sstore\n      0x20\n      dup3\n      add\n      mload\n      dup2\n      0x01\n      add\n      exp(0x0100, 0x00)\n      dup2\n      sload\n      dup2\n      0xffffffffffffffffffffffffffffffffffffffff\n      mul\n      not\n      and\n      swap1\n      dup4\n      0xffffffffffffffffffffffffffffffffffffffff\n      and\n      mul\n      or\n      swap1\n      sstore\n      pop\n      0x40\n      dup3\n      add\n      mload\n      dup2\n      0x02\n      add\n      swap1\n      dup1\n      mload\n      swap1\n      0x20\n      add\n      swap1\n      tag_33\n      swap3\n      swap2\n      swap1\n      tag_34\n      jump\t// in\n    tag_33:\n      pop\n      0x60\n      dup3\n      add\n      mload\n      dup2\n      0x03\n      add\n      swap1\n      dup1\n      mload\n      swap1\n      0x20\n      add\n      swap1\n      tag_35\n      swap3\n      swap2\n      swap1\n      tag_34\n      jump\t// in\n    tag_35:\n      pop\n      0x80\n      dup3\n      add\n      mload\n      dup2\n      0x04\n      add\n      sstore\n      0xa0\n      dup3\n      add\n      mload\n      dup2\n      0x05\n      add\n      sstore\n      0xc0\n      dup3\n      add\n      mload\n      dup2\n      0x06\n      add\n      sstore\n      0xe0\n      dup3\n      add\n      mload\n      dup2\n      0x07\n      add\n      exp(0x0100, 0x00)\n      dup2\n      sload\n      dup2\n      0xff\n      mul\n      not\n      and\n      swap1\n      dup4\n      0x03\n      dup2\n      gt\n      iszero\n      tag_36\n      jumpi\n      tag_37\n      tag_31\n      jump\t// in\n    tag_37:\n    tag_36:\n      mul\n      or\n      swap1\n      sstore\n      pop\n      pop\n      pop\n        /* \"contracts/test.sol\":3142:3465  function setPoll(string memory _title, string memory _content) public {\r... */\n      pop\n      pop\n      jump\t// out\n        /* \"contracts/test.sol\":3586:3853  function votePoll(uint _a, bool pro) public {\r... */\n    tag_22:\n        /* \"contracts/test.sol\":3729:3732  pro */\n      dup1\n        /* \"contracts/test.sol\":3726:3846  if(pro /*pro == true*/) {\r... */\n      iszero\n      tag_39\n      jumpi\n        /* \"contracts/test.sol\":3765:3770  Polls */\n      0x00\n        /* \"contracts/test.sol\":3774:3775  1 */\n      0x01\n        /* \"contracts/test.sol\":3771:3773  _a */\n      dup4\n        /* \"contracts/test.sol\":3771:3775  _a-1 */\n      tag_40\n      swap2\n      swap1\n      tag_41\n      jump\t// in\n    tag_40:\n        /* \"contracts/test.sol\":3765:3776  Polls[_a-1] */\n      dup2\n      sload\n      dup2\n      lt\n      tag_42\n      jumpi\n      tag_43\n      tag_44\n      jump\t// in\n    tag_43:\n    tag_42:\n      swap1\n      0x00\n      mstore\n      keccak256(0x00, 0x20)\n      swap1\n      0x08\n      mul\n      add\n        /* \"contracts/test.sol\":3765:3781  Polls[_a-1].pros */\n      0x04\n      add\n      0x00\n        /* \"contracts/test.sol\":3765:3783  Polls[_a-1].pros++ */\n      dup2\n      sload\n      dup1\n      swap3\n      swap2\n      swap1\n      tag_46\n      swap1\n      tag_47\n      jump\t// in\n    tag_46:\n      swap2\n      swap1\n      pop\n      sstore\n      pop\n        /* \"contracts/test.sol\":3726:3846  if(pro /*pro == true*/) {\r... */\n      jump(tag_48)\n    tag_39:\n        /* \"contracts/test.sol\":3816:3821  Polls */\n      0x00\n        /* \"contracts/test.sol\":3825:3826  1 */\n      0x01\n        /* \"contracts/test.sol\":3822:3824  _a */\n      dup4\n        /* \"contracts/test.sol\":3822:3826  _a-1 */\n      tag_49\n      swap2\n      swap1\n      tag_41\n      jump\t// in\n    tag_49:\n        /* \"contracts/test.sol\":3816:3827  Polls[_a-1] */\n      dup2\n      sload\n      dup2\n      lt\n      tag_50\n      jumpi\n      tag_51\n      tag_44\n      jump\t// in\n    tag_51:\n    tag_50:\n      swap1\n      0x00\n      mstore\n      keccak256(0x00, 0x20)\n      swap1\n      0x08\n      mul\n      add\n        /* \"contracts/test.sol\":3816:3832  Polls[_a-1].cons */\n      0x05\n      add\n      0x00\n        /* \"contracts/test.sol\":3816:3834  Polls[_a-1].cons++ */\n      dup2\n      sload\n      dup1\n      swap3\n      swap2\n      swap1\n      tag_53\n      swap1\n      tag_47\n      jump\t// in\n    tag_53:\n      swap2\n      swap1\n      pop\n      sstore\n      pop\n        /* \"contracts/test.sol\":3726:3846  if(pro /*pro == true*/) {\r... */\n    tag_48:\n        /* \"contracts/test.sol\":3586:3853  function votePoll(uint _a, bool pro) public {\r... */\n      pop\n      pop\n      jump\t// out\n    tag_34:\n      dup3\n      dup1\n      sload\n      tag_54\n      swap1\n      tag_55\n      jump\t// in\n    tag_54:\n      swap1\n      0x00\n      mstore\n      keccak256(0x00, 0x20)\n      swap1\n      0x1f\n      add\n      0x20\n      swap1\n      div\n      dup2\n      add\n      swap3\n      dup3\n      tag_57\n      jumpi\n      0x00\n      dup6\n      sstore\n      jump(tag_56)\n    tag_57:\n      dup3\n      0x1f\n      lt\n      tag_58\n      jumpi\n      dup1\n      mload\n      not(0xff)\n      and\n      dup4\n      dup1\n      add\n      or\n      dup6\n      sstore\n      jump(tag_56)\n    tag_58:\n      dup3\n      dup1\n      add\n      0x01\n      add\n      dup6\n      sstore\n      dup3\n      iszero\n      tag_56\n      jumpi\n      swap2\n      dup3\n      add\n    tag_59:\n      dup3\n      dup2\n      gt\n      iszero\n      tag_60\n      jumpi\n      dup3\n      mload\n      dup3\n      sstore\n      swap2\n      0x20\n      add\n      swap2\n      swap1\n      0x01\n      add\n      swap1\n      jump(tag_59)\n    tag_60:\n    tag_56:\n      pop\n      swap1\n      pop\n      tag_61\n      swap2\n      swap1\n      tag_62\n      jump\t// in\n    tag_61:\n      pop\n      swap1\n      jump\t// out\n    tag_62:\n    tag_63:\n      dup1\n      dup3\n      gt\n      iszero\n      tag_64\n      jumpi\n      0x00\n      dup2\n      0x00\n      swap1\n      sstore\n      pop\n      0x01\n      add\n      jump(tag_63)\n    tag_64:\n      pop\n      swap1\n      jump\t// out\n        /* \"#utility.yul\":7:419   */\n    tag_66:\n        /* \"#utility.yul\":85:90   */\n      0x00\n        /* \"#utility.yul\":110:176   */\n      tag_68\n        /* \"#utility.yul\":126:175   */\n      tag_69\n        /* \"#utility.yul\":168:174   */\n      dup5\n        /* \"#utility.yul\":126:175   */\n      tag_70\n      jump\t// in\n    tag_69:\n        /* \"#utility.yul\":110:176   */\n      tag_71\n      jump\t// in\n    tag_68:\n        /* \"#utility.yul\":101:176   */\n      swap1\n      pop\n        /* \"#utility.yul\":199:205   */\n      dup3\n        /* \"#utility.yul\":192:197   */\n      dup2\n        /* \"#utility.yul\":185:206   */\n      mstore\n        /* \"#utility.yul\":237:241   */\n      0x20\n        /* \"#utility.yul\":230:235   */\n      dup2\n        /* \"#utility.yul\":226:242   */\n      add\n        /* \"#utility.yul\":275:278   */\n      dup5\n        /* \"#utility.yul\":266:272   */\n      dup5\n        /* \"#utility.yul\":261:264   */\n      dup5\n        /* \"#utility.yul\":257:273   */\n      add\n        /* \"#utility.yul\":254:279   */\n      gt\n        /* \"#utility.yul\":251:363   */\n      iszero\n      tag_72\n      jumpi\n        /* \"#utility.yul\":282:361   */\n      tag_73\n      tag_74\n      jump\t// in\n    tag_73:\n        /* \"#utility.yul\":251:363   */\n    tag_72:\n        /* \"#utility.yul\":372:413   */\n      tag_75\n        /* \"#utility.yul\":406:412   */\n      dup5\n        /* \"#utility.yul\":401:404   */\n      dup3\n        /* \"#utility.yul\":396:399   */\n      dup6\n        /* \"#utility.yul\":372:413   */\n      tag_76\n      jump\t// in\n    tag_75:\n        /* \"#utility.yul\":91:419   */\n      pop\n        /* \"#utility.yul\":7:419   */\n      swap4\n      swap3\n      pop\n      pop\n      pop\n      jump\t// out\n        /* \"#utility.yul\":425:564   */\n    tag_77:\n        /* \"#utility.yul\":471:476   */\n      0x00\n        /* \"#utility.yul\":509:515   */\n      dup2\n        /* \"#utility.yul\":496:516   */\n      calldataload\n        /* \"#utility.yul\":487:516   */\n      swap1\n      pop\n        /* \"#utility.yul\":525:558   */\n      tag_79\n        /* \"#utility.yul\":552:557   */\n      dup2\n        /* \"#utility.yul\":525:558   */\n      tag_80\n      jump\t// in\n    tag_79:\n        /* \"#utility.yul\":425:564   */\n      swap3\n      swap2\n      pop\n      pop\n      jump\t// out\n        /* \"#utility.yul\":570:703   */\n    tag_81:\n        /* \"#utility.yul\":613:618   */\n      0x00\n        /* \"#utility.yul\":651:657   */\n      dup2\n        /* \"#utility.yul\":638:658   */\n      calldataload\n        /* \"#utility.yul\":629:658   */\n      swap1\n      pop\n        /* \"#utility.yul\":667:697   */\n      tag_83\n        /* \"#utility.yul\":691:696   */\n      dup2\n        /* \"#utility.yul\":667:697   */\n      tag_84\n      jump\t// in\n    tag_83:\n        /* \"#utility.yul\":570:703   */\n      swap3\n      swap2\n      pop\n      pop\n      jump\t// out\n        /* \"#utility.yul\":723:1063   */\n    tag_85:\n        /* \"#utility.yul\":779:784   */\n      0x00\n        /* \"#utility.yul\":828:831   */\n      dup3\n        /* \"#utility.yul\":821:825   */\n      0x1f\n        /* \"#utility.yul\":813:819   */\n      dup4\n        /* \"#utility.yul\":809:826   */\n      add\n        /* \"#utility.yul\":805:832   */\n      slt\n        /* \"#utility.yul\":795:917   */\n      tag_87\n      jumpi\n        /* \"#utility.yul\":836:915   */\n      tag_88\n      tag_89\n      jump\t// in\n    tag_88:\n        /* \"#utility.yul\":795:917   */\n    tag_87:\n        /* \"#utility.yul\":953:959   */\n      dup2\n        /* \"#utility.yul\":940:960   */\n      calldataload\n        /* \"#utility.yul\":978:1057   */\n      tag_90\n        /* \"#utility.yul\":1053:1056   */\n      dup5\n        /* \"#utility.yul\":1045:1051   */\n      dup3\n        /* \"#utility.yul\":1038:1042   */\n      0x20\n        /* \"#utility.yul\":1030:1036   */\n      dup7\n        /* \"#utility.yul\":1026:1043   */\n      add\n        /* \"#utility.yul\":978:1057   */\n      tag_66\n      jump\t// in\n    tag_90:\n        /* \"#utility.yul\":969:1057   */\n      swap2\n      pop\n        /* \"#utility.yul\":785:1063   */\n      pop\n        /* \"#utility.yul\":723:1063   */\n      swap3\n      swap2\n      pop\n      pop\n      jump\t// out\n        /* \"#utility.yul\":1069:1208   */\n    tag_91:\n        /* \"#utility.yul\":1115:1120   */\n      0x00\n        /* \"#utility.yul\":1153:1159   */\n      dup2\n        /* \"#utility.yul\":1140:1160   */\n      calldataload\n        /* \"#utility.yul\":1131:1160   */\n      swap1\n      pop\n        /* \"#utility.yul\":1169:1202   */\n      tag_93\n        /* \"#utility.yul\":1196:1201   */\n      dup2\n        /* \"#utility.yul\":1169:1202   */\n      tag_94\n      jump\t// in\n    tag_93:\n        /* \"#utility.yul\":1069:1208   */\n      swap3\n      swap2\n      pop\n      pop\n      jump\t// out\n        /* \"#utility.yul\":1214:1543   */\n    tag_9:\n        /* \"#utility.yul\":1273:1279   */\n      0x00\n        /* \"#utility.yul\":1322:1324   */\n      0x20\n        /* \"#utility.yul\":1310:1319   */\n      dup3\n        /* \"#utility.yul\":1301:1308   */\n      dup5\n        /* \"#utility.yul\":1297:1320   */\n      sub\n        /* \"#utility.yul\":1293:1325   */\n      slt\n        /* \"#utility.yul\":1290:1409   */\n      iszero\n      tag_96\n      jumpi\n        /* \"#utility.yul\":1328:1407   */\n      tag_97\n      tag_98\n      jump\t// in\n    tag_97:\n        /* \"#utility.yul\":1290:1409   */\n    tag_96:\n        /* \"#utility.yul\":1448:1449   */\n      0x00\n        /* \"#utility.yul\":1473:1526   */\n      tag_99\n        /* \"#utility.yul\":1518:1525   */\n      dup5\n        /* \"#utility.yul\":1509:1515   */\n      dup3\n        /* \"#utility.yul\":1498:1507   */\n      dup6\n        /* \"#utility.yul\":1494:1516   */\n      add\n        /* \"#utility.yul\":1473:1526   */\n      tag_77\n      jump\t// in\n    tag_99:\n        /* \"#utility.yul\":1463:1526   */\n      swap2\n      pop\n        /* \"#utility.yul\":1419:1536   */\n      pop\n        /* \"#utility.yul\":1214:1543   */\n      swap3\n      swap2\n      pop\n      pop\n      jump\t// out\n        /* \"#utility.yul\":1549:2383   */\n    tag_17:\n        /* \"#utility.yul\":1637:1643   */\n      0x00\n        /* \"#utility.yul\":1645:1651   */\n      dup1\n        /* \"#utility.yul\":1694:1696   */\n      0x40\n        /* \"#utility.yul\":1682:1691   */\n      dup4\n        /* \"#utility.yul\":1673:1680   */\n      dup6\n        /* \"#utility.yul\":1669:1692   */\n      sub\n        /* \"#utility.yul\":1665:1697   */\n      slt\n        /* \"#utility.yul\":1662:1781   */\n      iszero\n      tag_101\n      jumpi\n        /* \"#utility.yul\":1700:1779   */\n      tag_102\n      tag_98\n      jump\t// in\n    tag_102:\n        /* \"#utility.yul\":1662:1781   */\n    tag_101:\n        /* \"#utility.yul\":1848:1849   */\n      0x00\n        /* \"#utility.yul\":1837:1846   */\n      dup4\n        /* \"#utility.yul\":1833:1850   */\n      add\n        /* \"#utility.yul\":1820:1851   */\n      calldataload\n        /* \"#utility.yul\":1878:1896   */\n      0xffffffffffffffff\n        /* \"#utility.yul\":1870:1876   */\n      dup2\n        /* \"#utility.yul\":1867:1897   */\n      gt\n        /* \"#utility.yul\":1864:1981   */\n      iszero\n      tag_103\n      jumpi\n        /* \"#utility.yul\":1900:1979   */\n      tag_104\n      tag_105\n      jump\t// in\n    tag_104:\n        /* \"#utility.yul\":1864:1981   */\n    tag_103:\n        /* \"#utility.yul\":2005:2068   */\n      tag_106\n        /* \"#utility.yul\":2060:2067   */\n      dup6\n        /* \"#utility.yul\":2051:2057   */\n      dup3\n        /* \"#utility.yul\":2040:2049   */\n      dup7\n        /* \"#utility.yul\":2036:2058   */\n      add\n        /* \"#utility.yul\":2005:2068   */\n      tag_85\n      jump\t// in\n    tag_106:\n        /* \"#utility.yul\":1995:2068   */\n      swap3\n      pop\n        /* \"#utility.yul\":1791:2078   */\n      pop\n        /* \"#utility.yul\":2145:2147   */\n      0x20\n        /* \"#utility.yul\":2134:2143   */\n      dup4\n        /* \"#utility.yul\":2130:2148   */\n      add\n        /* \"#utility.yul\":2117:2149   */\n      calldataload\n        /* \"#utility.yul\":2176:2194   */\n      0xffffffffffffffff\n        /* \"#utility.yul\":2168:2174   */\n      dup2\n        /* \"#utility.yul\":2165:2195   */\n      gt\n        /* \"#utility.yul\":2162:2279   */\n      iszero\n      tag_107\n      jumpi\n        /* \"#utility.yul\":2198:2277   */\n      tag_108\n      tag_105\n      jump\t// in\n    tag_108:\n        /* \"#utility.yul\":2162:2279   */\n    tag_107:\n        /* \"#utility.yul\":2303:2366   */\n      tag_109\n        /* \"#utility.yul\":2358:2365   */\n      dup6\n        /* \"#utility.yul\":2349:2355   */\n      dup3\n        /* \"#utility.yul\":2338:2347   */\n      dup7\n        /* \"#utility.yul\":2334:2356   */\n      add\n        /* \"#utility.yul\":2303:2366   */\n      tag_85\n      jump\t// in\n    tag_109:\n        /* \"#utility.yul\":2293:2366   */\n      swap2\n      pop\n        /* \"#utility.yul\":2088:2376   */\n      pop\n        /* \"#utility.yul\":1549:2383   */\n      swap3\n      pop\n      swap3\n      swap1\n      pop\n      jump\t// out\n        /* \"#utility.yul\":2389:2857   */\n    tag_21:\n        /* \"#utility.yul\":2454:2460   */\n      0x00\n        /* \"#utility.yul\":2462:2468   */\n      dup1\n        /* \"#utility.yul\":2511:2513   */\n      0x40\n        /* \"#utility.yul\":2499:2508   */\n      dup4\n        /* \"#utility.yul\":2490:2497   */\n      dup6\n        /* \"#utility.yul\":2486:2509   */\n      sub\n        /* \"#utility.yul\":2482:2514   */\n      slt\n        /* \"#utility.yul\":2479:2598   */\n      iszero\n      tag_111\n      jumpi\n        /* \"#utility.yul\":2517:2596   */\n      tag_112\n      tag_98\n      jump\t// in\n    tag_112:\n        /* \"#utility.yul\":2479:2598   */\n    tag_111:\n        /* \"#utility.yul\":2637:2638   */\n      0x00\n        /* \"#utility.yul\":2662:2715   */\n      tag_113\n        /* \"#utility.yul\":2707:2714   */\n      dup6\n        /* \"#utility.yul\":2698:2704   */\n      dup3\n        /* \"#utility.yul\":2687:2696   */\n      dup7\n        /* \"#utility.yul\":2683:2705   */\n      add\n        /* \"#utility.yul\":2662:2715   */\n      tag_91\n      jump\t// in\n    tag_113:\n        /* \"#utility.yul\":2652:2715   */\n      swap3\n      pop\n        /* \"#utility.yul\":2608:2725   */\n      pop\n        /* \"#utility.yul\":2764:2766   */\n      0x20\n        /* \"#utility.yul\":2790:2840   */\n      tag_114\n        /* \"#utility.yul\":2832:2839   */\n      dup6\n        /* \"#utility.yul\":2823:2829   */\n      dup3\n        /* \"#utility.yul\":2812:2821   */\n      dup7\n        /* \"#utility.yul\":2808:2830   */\n      add\n        /* \"#utility.yul\":2790:2840   */\n      tag_81\n      jump\t// in\n    tag_114:\n        /* \"#utility.yul\":2780:2840   */\n      swap2\n      pop\n        /* \"#utility.yul\":2735:2850   */\n      pop\n        /* \"#utility.yul\":2389:2857   */\n      swap3\n      pop\n      swap3\n      swap1\n      pop\n      jump\t// out\n        /* \"#utility.yul\":2863:2981   */\n    tag_115:\n        /* \"#utility.yul\":2950:2974   */\n      tag_117\n        /* \"#utility.yul\":2968:2973   */\n      dup2\n        /* \"#utility.yul\":2950:2974   */\n      tag_118\n      jump\t// in\n    tag_117:\n        /* \"#utility.yul\":2945:2948   */\n      dup3\n        /* \"#utility.yul\":2938:2975   */\n      mstore\n        /* \"#utility.yul\":2863:2981   */\n      pop\n      pop\n      jump\t// out\n        /* \"#utility.yul\":2987:3209   */\n    tag_14:\n        /* \"#utility.yul\":3080:3084   */\n      0x00\n        /* \"#utility.yul\":3118:3120   */\n      0x20\n        /* \"#utility.yul\":3107:3116   */\n      dup3\n        /* \"#utility.yul\":3103:3121   */\n      add\n        /* \"#utility.yul\":3095:3121   */\n      swap1\n      pop\n        /* \"#utility.yul\":3131:3202   */\n      tag_120\n        /* \"#utility.yul\":3199:3200   */\n      0x00\n        /* \"#utility.yul\":3188:3197   */\n      dup4\n        /* \"#utility.yul\":3184:3201   */\n      add\n        /* \"#utility.yul\":3175:3181   */\n      dup5\n        /* \"#utility.yul\":3131:3202   */\n      tag_115\n      jump\t// in\n    tag_120:\n        /* \"#utility.yul\":2987:3209   */\n      swap3\n      swap2\n      pop\n      pop\n      jump\t// out\n        /* \"#utility.yul\":3215:3344   */\n    tag_71:\n        /* \"#utility.yul\":3249:3255   */\n      0x00\n        /* \"#utility.yul\":3276:3296   */\n      tag_122\n      tag_123\n      jump\t// in\n    tag_122:\n        /* \"#utility.yul\":3266:3296   */\n      swap1\n      pop\n        /* \"#utility.yul\":3305:3338   */\n      tag_124\n        /* \"#utility.yul\":3333:3337   */\n      dup3\n        /* \"#utility.yul\":3325:3331   */\n      dup3\n        /* \"#utility.yul\":3305:3338   */\n      tag_125\n      jump\t// in\n    tag_124:\n        /* \"#utility.yul\":3215:3344   */\n      swap2\n      swap1\n      pop\n      jump\t// out\n        /* \"#utility.yul\":3350:3425   */\n    tag_123:\n        /* \"#utility.yul\":3383:3389   */\n      0x00\n        /* \"#utility.yul\":3416:3418   */\n      0x40\n        /* \"#utility.yul\":3410:3419   */\n      mload\n        /* \"#utility.yul\":3400:3419   */\n      swap1\n      pop\n        /* \"#utility.yul\":3350:3425   */\n      swap1\n      jump\t// out\n        /* \"#utility.yul\":3431:3739   */\n    tag_70:\n        /* \"#utility.yul\":3493:3497   */\n      0x00\n        /* \"#utility.yul\":3583:3601   */\n      0xffffffffffffffff\n        /* \"#utility.yul\":3575:3581   */\n      dup3\n        /* \"#utility.yul\":3572:3602   */\n      gt\n        /* \"#utility.yul\":3569:3625   */\n      iszero\n      tag_128\n      jumpi\n        /* \"#utility.yul\":3605:3623   */\n      tag_129\n      tag_130\n      jump\t// in\n    tag_129:\n        /* \"#utility.yul\":3569:3625   */\n    tag_128:\n        /* \"#utility.yul\":3643:3672   */\n      tag_131\n        /* \"#utility.yul\":3665:3671   */\n      dup3\n        /* \"#utility.yul\":3643:3672   */\n      tag_132\n      jump\t// in\n    tag_131:\n        /* \"#utility.yul\":3635:3672   */\n      swap1\n      pop\n        /* \"#utility.yul\":3727:3731   */\n      0x20\n        /* \"#utility.yul\":3721:3725   */\n      dup2\n        /* \"#utility.yul\":3717:3732   */\n      add\n        /* \"#utility.yul\":3709:3732   */\n      swap1\n      pop\n        /* \"#utility.yul\":3431:3739   */\n      swap2\n      swap1\n      pop\n      jump\t// out\n        /* \"#utility.yul\":3745:4050   */\n    tag_28:\n        /* \"#utility.yul\":3785:3788   */\n      0x00\n        /* \"#utility.yul\":3804:3824   */\n      tag_134\n        /* \"#utility.yul\":3822:3823   */\n      dup3\n        /* \"#utility.yul\":3804:3824   */\n      tag_118\n      jump\t// in\n    tag_134:\n        /* \"#utility.yul\":3799:3824   */\n      swap2\n      pop\n        /* \"#utility.yul\":3838:3858   */\n      tag_135\n        /* \"#utility.yul\":3856:3857   */\n      dup4\n        /* \"#utility.yul\":3838:3858   */\n      tag_118\n      jump\t// in\n    tag_135:\n        /* \"#utility.yul\":3833:3858   */\n      swap3\n      pop\n        /* \"#utility.yul\":3992:3993   */\n      dup3\n        /* \"#utility.yul\":3924:3990   */\n      0xffffffffffffffffffffffffffffffffffffffffffffffffffffffffffffffff\n        /* \"#utility.yul\":3920:3994   */\n      sub\n        /* \"#utility.yul\":3917:3918   */\n      dup3\n        /* \"#utility.yul\":3914:3995   */\n      gt\n        /* \"#utility.yul\":3911:4018   */\n      iszero\n      tag_136\n      jumpi\n        /* \"#utility.yul\":3998:4016   */\n      tag_137\n      tag_138\n      jump\t// in\n    tag_137:\n        /* \"#utility.yul\":3911:4018   */\n    tag_136:\n        /* \"#utility.yul\":4042:4043   */\n      dup3\n        /* \"#utility.yul\":4039:4040   */\n      dup3\n        /* \"#utility.yul\":4035:4044   */\n      add\n        /* \"#utility.yul\":4028:4044   */\n      swap1\n      pop\n        /* \"#utility.yul\":3745:4050   */\n      swap3\n      swap2\n      pop\n      pop\n      jump\t// out\n        /* \"#utility.yul\":4056:4247   */\n    tag_41:\n        /* \"#utility.yul\":4096:4100   */\n      0x00\n        /* \"#utility.yul\":4116:4136   */\n      tag_140\n        /* \"#utility.yul\":4134:4135   */\n      dup3\n        /* \"#utility.yul\":4116:4136   */\n      tag_118\n      jump\t// in\n    tag_140:\n        /* \"#utility.yul\":4111:4136   */\n      swap2\n      pop\n        /* \"#utility.yul\":4150:4170   */\n      tag_141\n        /* \"#utility.yul\":4168:4169   */\n      dup4\n        /* \"#utility.yul\":4150:4170   */\n      tag_118\n      jump\t// in\n    tag_141:\n        /* \"#utility.yul\":4145:4170   */\n      swap3\n      pop\n        /* \"#utility.yul\":4189:4190   */\n      dup3\n        /* \"#utility.yul\":4186:4187   */\n      dup3\n        /* \"#utility.yul\":4183:4191   */\n      lt\n        /* \"#utility.yul\":4180:4214   */\n      iszero\n      tag_142\n      jumpi\n        /* \"#utility.yul\":4194:4212   */\n      tag_143\n      tag_138\n      jump\t// in\n    tag_143:\n        /* \"#utility.yul\":4180:4214   */\n    tag_142:\n        /* \"#utility.yul\":4239:4240   */\n      dup3\n        /* \"#utility.yul\":4236:4237   */\n      dup3\n        /* \"#utility.yul\":4232:4241   */\n      sub\n        /* \"#utility.yul\":4224:4241   */\n      swap1\n      pop\n        /* \"#utility.yul\":4056:4247   */\n      swap3\n      swap2\n      pop\n      pop\n      jump\t// out\n        /* \"#utility.yul\":4253:4349   */\n    tag_144:\n        /* \"#utility.yul\":4290:4297   */\n      0x00\n        /* \"#utility.yul\":4319:4343   */\n      tag_146\n        /* \"#utility.yul\":4337:4342   */\n      dup3\n        /* \"#utility.yul\":4319:4343   */\n      tag_147\n      jump\t// in\n    tag_146:\n        /* \"#utility.yul\":4308:4343   */\n      swap1\n      pop\n        /* \"#utility.yul\":4253:4349   */\n      swap2\n      swap1\n      pop\n      jump\t// out\n        /* \"#utility.yul\":4355:4445   */\n    tag_148:\n        /* \"#utility.yul\":4389:4396   */\n      0x00\n        /* \"#utility.yul\":4432:4437   */\n      dup2\n        /* \"#utility.yul\":4425:4438   */\n      iszero\n        /* \"#utility.yul\":4418:4439   */\n      iszero\n        /* \"#utility.yul\":4407:4439   */\n      swap1\n      pop\n        /* \"#utility.yul\":4355:4445   */\n      swap2\n      swap1\n      pop\n      jump\t// out\n        /* \"#utility.yul\":4451:4577   */\n    tag_147:\n        /* \"#utility.yul\":4488:4495   */\n      0x00\n        /* \"#utility.yul\":4528:4570   */\n      0xffffffffffffffffffffffffffffffffffffffff\n        /* \"#utility.yul\":4521:4526   */\n      dup3\n        /* \"#utility.yul\":4517:4571   */\n      and\n        /* \"#utility.yul\":4506:4571   */\n      swap1\n      pop\n        /* \"#utility.yul\":4451:4577   */\n      swap2\n      swap1\n      pop\n      jump\t// out\n        /* \"#utility.yul\":4583:4660   */\n    tag_118:\n        /* \"#utility.yul\":4620:4627   */\n      0x00\n        /* \"#utility.yul\":4649:4654   */\n      dup2\n        /* \"#utility.yul\":4638:4654   */\n      swap1\n      pop\n        /* \"#utility.yul\":4583:4660   */\n      swap2\n      swap1\n      pop\n      jump\t// out\n        /* \"#utility.yul\":4666:4820   */\n    tag_76:\n        /* \"#utility.yul\":4750:4756   */\n      dup3\n        /* \"#utility.yul\":4745:4748   */\n      dup2\n        /* \"#utility.yul\":4740:4743   */\n      dup4\n        /* \"#utility.yul\":4727:4757   */\n      calldatacopy\n        /* \"#utility.yul\":4812:4813   */\n      0x00\n        /* \"#utility.yul\":4803:4809   */\n      dup4\n        /* \"#utility.yul\":4798:4801   */\n      dup4\n        /* \"#utility.yul\":4794:4810   */\n      add\n        /* \"#utility.yul\":4787:4814   */\n      mstore\n        /* \"#utility.yul\":4666:4820   */\n      pop\n      pop\n      pop\n      jump\t// out\n        /* \"#utility.yul\":4826:5146   */\n    tag_55:\n        /* \"#utility.yul\":4870:4876   */\n      0x00\n        /* \"#utility.yul\":4907:4908   */\n      0x02\n        /* \"#utility.yul\":4901:4905   */\n      dup3\n        /* \"#utility.yul\":4897:4909   */\n      div\n        /* \"#utility.yul\":4887:4909   */\n      swap1\n      pop\n        /* \"#utility.yul\":4954:4955   */\n      0x01\n        /* \"#utility.yul\":4948:4952   */\n      dup3\n        /* \"#utility.yul\":4944:4956   */\n      and\n        /* \"#utility.yul\":4975:4993   */\n      dup1\n        /* \"#utility.yul\":4965:5046   */\n      tag_154\n      jumpi\n        /* \"#utility.yul\":5031:5035   */\n      0x7f\n        /* \"#utility.yul\":5023:5029   */\n      dup3\n        /* \"#utility.yul\":5019:5036   */\n      and\n        /* \"#utility.yul\":5009:5036   */\n      swap2\n      pop\n        /* \"#utility.yul\":4965:5046   */\n    tag_154:\n        /* \"#utility.yul\":5093:5095   */\n      0x20\n        /* \"#utility.yul\":5085:5091   */\n      dup3\n        /* \"#utility.yul\":5082:5096   */\n      lt\n        /* \"#utility.yul\":5062:5080   */\n      dup2\n        /* \"#utility.yul\":5059:5097   */\n      eq\n        /* \"#utility.yul\":5056:5140   */\n      iszero\n      tag_155\n      jumpi\n        /* \"#utility.yul\":5112:5130   */\n      tag_156\n      tag_157\n      jump\t// in\n    tag_156:\n        /* \"#utility.yul\":5056:5140   */\n    tag_155:\n        /* \"#utility.yul\":4877:5146   */\n      pop\n        /* \"#utility.yul\":4826:5146   */\n      swap2\n      swap1\n      pop\n      jump\t// out\n        /* \"#utility.yul\":5152:5433   */\n    tag_125:\n        /* \"#utility.yul\":5235:5262   */\n      tag_159\n        /* \"#utility.yul\":5257:5261   */\n      dup3\n        /* \"#utility.yul\":5235:5262   */\n      tag_132\n      jump\t// in\n    tag_159:\n        /* \"#utility.yul\":5227:5233   */\n      dup2\n        /* \"#utility.yul\":5223:5263   */\n      add\n        /* \"#utility.yul\":5365:5371   */\n      dup2\n        /* \"#utility.yul\":5353:5363   */\n      dup2\n        /* \"#utility.yul\":5350:5372   */\n      lt\n        /* \"#utility.yul\":5329:5347   */\n      0xffffffffffffffff\n        /* \"#utility.yul\":5317:5327   */\n      dup3\n        /* \"#utility.yul\":5314:5348   */\n      gt\n        /* \"#utility.yul\":5311:5373   */\n      or\n        /* \"#utility.yul\":5308:5396   */\n      iszero\n      tag_160\n      jumpi\n        /* \"#utility.yul\":5376:5394   */\n      tag_161\n      tag_130\n      jump\t// in\n    tag_161:\n        /* \"#utility.yul\":5308:5396   */\n    tag_160:\n        /* \"#utility.yul\":5416:5426   */\n      dup1\n        /* \"#utility.yul\":5412:5414   */\n      0x40\n        /* \"#utility.yul\":5405:5427   */\n      mstore\n        /* \"#utility.yul\":5195:5433   */\n      pop\n        /* \"#utility.yul\":5152:5433   */\n      pop\n      pop\n      jump\t// out\n        /* \"#utility.yul\":5439:5672   */\n    tag_47:\n        /* \"#utility.yul\":5478:5481   */\n      0x00\n        /* \"#utility.yul\":5501:5525   */\n      tag_163\n        /* \"#utility.yul\":5519:5524   */\n      dup3\n        /* \"#utility.yul\":5501:5525   */\n      tag_118\n      jump\t// in\n    tag_163:\n        /* \"#utility.yul\":5492:5525   */\n      swap2\n      pop\n        /* \"#utility.yul\":5547:5613   */\n      0xffffffffffffffffffffffffffffffffffffffffffffffffffffffffffffffff\n        /* \"#utility.yul\":5540:5545   */\n      dup3\n        /* \"#utility.yul\":5537:5614   */\n      eq\n        /* \"#utility.yul\":5534:5637   */\n      iszero\n      tag_164\n      jumpi\n        /* \"#utility.yul\":5617:5635   */\n      tag_165\n      tag_138\n      jump\t// in\n    tag_165:\n        /* \"#utility.yul\":5534:5637   */\n    tag_164:\n        /* \"#utility.yul\":5664:5665   */\n      0x01\n        /* \"#utility.yul\":5657:5662   */\n      dup3\n        /* \"#utility.yul\":5653:5666   */\n      add\n        /* \"#utility.yul\":5646:5666   */\n      swap1\n      pop\n        /* \"#utility.yul\":5439:5672   */\n      swap2\n      swap1\n      pop\n      jump\t// out\n        /* \"#utility.yul\":5678:5858   */\n    tag_138:\n        /* \"#utility.yul\":5726:5803   */\n      0x4e487b7100000000000000000000000000000000000000000000000000000000\n        /* \"#utility.yul\":5723:5724   */\n      0x00\n        /* \"#utility.yul\":5716:5804   */\n      mstore\n        /* \"#utility.yul\":5823:5827   */\n      0x11\n        /* \"#utility.yul\":5820:5821   */\n      0x04\n        /* \"#utility.yul\":5813:5828   */\n      mstore\n        /* \"#utility.yul\":5847:5851   */\n      0x24\n        /* \"#utility.yul\":5844:5845   */\n      0x00\n        /* \"#utility.yul\":5837:5852   */\n      revert\n        /* \"#utility.yul\":5864:6044   */\n    tag_31:\n        /* \"#utility.yul\":5912:5989   */\n      0x4e487b7100000000000000000000000000000000000000000000000000000000\n        /* \"#utility.yul\":5909:5910   */\n      0x00\n        /* \"#utility.yul\":5902:5990   */\n      mstore\n        /* \"#utility.yul\":6009:6013   */\n      0x21\n        /* \"#utility.yul\":6006:6007   */\n      0x04\n        /* \"#utility.yul\":5999:6014   */\n      mstore\n        /* \"#utility.yul\":6033:6037   */\n      0x24\n        /* \"#utility.yul\":6030:6031   */\n      0x00\n        /* \"#utility.yul\":6023:6038   */\n      revert\n        /* \"#utility.yul\":6050:6230   */\n    tag_157:\n        /* \"#utility.yul\":6098:6175   */\n      0x4e487b7100000000000000000000000000000000000000000000000000000000\n        /* \"#utility.yul\":6095:6096   */\n      0x00\n        /* \"#utility.yul\":6088:6176   */\n      mstore\n        /* \"#utility.yul\":6195:6199   */\n      0x22\n        /* \"#utility.yul\":6192:6193   */\n      0x04\n        /* \"#utility.yul\":6185:6200   */\n      mstore\n        /* \"#utility.yul\":6219:6223   */\n      0x24\n        /* \"#utility.yul\":6216:6217   */\n      0x00\n        /* \"#utility.yul\":6209:6224   */\n      revert\n        /* \"#utility.yul\":6236:6416   */\n    tag_44:\n        /* \"#utility.yul\":6284:6361   */\n      0x4e487b7100000000000000000000000000000000000000000000000000000000\n        /* \"#utility.yul\":6281:6282   */\n      0x00\n        /* \"#utility.yul\":6274:6362   */\n      mstore\n        /* \"#utility.yul\":6381:6385   */\n      0x32\n        /* \"#utility.yul\":6378:6379   */\n      0x04\n        /* \"#utility.yul\":6371:6386   */\n      mstore\n        /* \"#utility.yul\":6405:6409   */\n      0x24\n        /* \"#utility.yul\":6402:6403   */\n      0x00\n        /* \"#utility.yul\":6395:6410   */\n      revert\n        /* \"#utility.yul\":6422:6602   */\n    tag_130:\n        /* \"#utility.yul\":6470:6547   */\n      0x4e487b7100000000000000000000000000000000000000000000000000000000\n        /* \"#utility.yul\":6467:6468   */\n      0x00\n        /* \"#utility.yul\":6460:6548   */\n      mstore\n        /* \"#utility.yul\":6567:6571   */\n      0x41\n        /* \"#utility.yul\":6564:6565   */\n      0x04\n        /* \"#utility.yul\":6557:6572   */\n      mstore\n        /* \"#utility.yul\":6591:6595   */\n      0x24\n        /* \"#utility.yul\":6588:6589   */\n      0x00\n        /* \"#utility.yul\":6581:6596   */\n      revert\n        /* \"#utility.yul\":6608:6725   */\n    tag_89:\n        /* \"#utility.yul\":6717:6718   */\n      0x00\n        /* \"#utility.yul\":6714:6715   */\n      dup1\n        /* \"#utility.yul\":6707:6719   */\n      revert\n        /* \"#utility.yul\":6731:6848   */\n    tag_74:\n        /* \"#utility.yul\":6840:6841   */\n      0x00\n        /* \"#utility.yul\":6837:6838   */\n      dup1\n        /* \"#utility.yul\":6830:6842   */\n      revert\n        /* \"#utility.yul\":6854:6971   */\n    tag_105:\n        /* \"#utility.yul\":6963:6964   */\n      0x00\n        /* \"#utility.yul\":6960:6961   */\n      dup1\n        /* \"#utility.yul\":6953:6965   */\n      revert\n        /* \"#utility.yul\":6977:7094   */\n    tag_98:\n        /* \"#utility.yul\":7086:7087   */\n      0x00\n        /* \"#utility.yul\":7083:7084   */\n      dup1\n        /* \"#utility.yul\":7076:7088   */\n      revert\n        /* \"#utility.yul\":7100:7202   */\n    tag_132:\n        /* \"#utility.yul\":7141:7147   */\n      0x00\n        /* \"#utility.yul\":7192:7194   */\n      0x1f\n        /* \"#utility.yul\":7188:7195   */\n      not\n        /* \"#utility.yul\":7183:7185   */\n      0x1f\n        /* \"#utility.yul\":7176:7181   */\n      dup4\n        /* \"#utility.yul\":7172:7186   */\n      add\n        /* \"#utility.yul\":7168:7196   */\n      and\n        /* \"#utility.yul\":7158:7196   */\n      swap1\n      pop\n        /* \"#utility.yul\":7100:7202   */\n      swap2\n      swap1\n      pop\n      jump\t// out\n        /* \"#utility.yul\":7208:7330   */\n    tag_80:\n        /* \"#utility.yul\":7281:7305   */\n      tag_177\n        /* \"#utility.yul\":7299:7304   */\n      dup2\n        /* \"#utility.yul\":7281:7305   */\n      tag_144\n      jump\t// in\n    tag_177:\n        /* \"#utility.yul\":7274:7279   */\n      dup2\n        /* \"#utility.yul\":7271:7306   */\n      eq\n        /* \"#utility.yul\":7261:7324   */\n      tag_178\n      jumpi\n        /* \"#utility.yul\":7320:7321   */\n      0x00\n        /* \"#utility.yul\":7317:7318   */\n      dup1\n        /* \"#utility.yul\":7310:7322   */\n      revert\n        /* \"#utility.yul\":7261:7324   */\n    tag_178:\n        /* \"#utility.yul\":7208:7330   */\n      pop\n      jump\t// out\n        /* \"#utility.yul\":7336:7452   */\n    tag_84:\n        /* \"#utility.yul\":7406:7427   */\n      tag_180\n        /* \"#utility.yul\":7421:7426   */\n      dup2\n        /* \"#utility.yul\":7406:7427   */\n      tag_148\n      jump\t// in\n    tag_180:\n        /* \"#utility.yul\":7399:7404   */\n      dup2\n        /* \"#utility.yul\":7396:7428   */\n      eq\n        /* \"#utility.yul\":7386:7446   */\n      tag_181\n      jumpi\n        /* \"#utility.yul\":7442:7443   */\n      0x00\n        /* \"#utility.yul\":7439:7440   */\n      dup1\n        /* \"#utility.yul\":7432:7444   */\n      revert\n        /* \"#utility.yul\":7386:7446   */\n    tag_181:\n        /* \"#utility.yul\":7336:7452   */\n      pop\n      jump\t// out\n        /* \"#utility.yul\":7458:7580   */\n    tag_94:\n        /* \"#utility.yul\":7531:7555   */\n      tag_183\n        /* \"#utility.yul\":7549:7554   */\n      dup2\n        /* \"#utility.yul\":7531:7555   */\n      tag_118\n      jump\t// in\n    tag_183:\n        /* \"#utility.yul\":7524:7529   */\n      dup2\n        /* \"#utility.yul\":7521:7556   */\n      eq\n        /* \"#utility.yul\":7511:7574   */\n      tag_184\n      jumpi\n        /* \"#utility.yul\":7570:7571   */\n      0x00\n        /* \"#utility.yul\":7567:7568   */\n      dup1\n        /* \"#utility.yul\":7560:7572   */\n      revert\n        /* \"#utility.yul\":7511:7574   */\n    tag_184:\n        /* \"#utility.yul\":7458:7580   */\n      pop\n      jump\t// out\n\n    auxdata: 0xa2646970667358221220eb998b0b22951c2690a4096bccdac2e1667b3fc79d4f95172e4716ef60197eb964736f6c63430008070033\n}\n",
				"bytecode": {
					"linkReferences": {},
					"object": "608060405234801561001057600080fd5b50610922806100206000396000f3fe608060405234801561001057600080fd5b506004361061004c5760003560e01c8063090d23b9146100515780635a79e3391461006d578063807c66831461008b5780639d79a9eb146100a7575b600080fd5b61006b600480360381019061006691906104a5565b6100c3565b005b610075610129565b6040516100829190610599565b60405180910390f35b6100a560048036038101906100a091906104d2565b610135565b005b6100c160048036038101906100bc919061054a565b6102b5565b005b6001819080600181540180825580915050600190039060005260206000200160009091909190916101000a81548173ffffffffffffffffffffffffffffffffffffffff021916908373ffffffffffffffffffffffffffffffffffffffff16021790555050565b60006001805490505090565b60006040518061010001604052806001600080549050610155919061060a565b81526020013373ffffffffffffffffffffffffffffffffffffffff1681526020018481526020018381526020016000815260200160008152602001428152602001600060038111156101aa576101a96107c6565b5b81525090806001815401808255809150506001900390600052602060002090600802016000909190919091506000820151816000015560208201518160010160006101000a81548173ffffffffffffffffffffffffffffffffffffffff021916908373ffffffffffffffffffffffffffffffffffffffff1602179055506040820151816002019080519060200190610243929190610353565b506060820151816003019080519060200190610260929190610353565b506080820151816004015560a0820151816005015560c0820151816006015560e08201518160070160006101000a81548160ff021916908360038111156102aa576102a96107c6565b5b021790555050505050565b80156103075760006001836102ca9190610660565b815481106102db576102da610824565b5b906000526020600020906008020160040160008154809291906102fd9061074e565b919050555061034f565b60006001836103169190610660565b8154811061032757610326610824565b5b906000526020600020906008020160050160008154809291906103499061074e565b91905055505b5050565b82805461035f906106eb565b90600052602060002090601f01602090048101928261038157600085556103c8565b82601f1061039a57805160ff19168380011785556103c8565b828001600101855582156103c8579182015b828111156103c75782518255916020019190600101906103ac565b5b5090506103d591906103d9565b5090565b5b808211156103f25760008160009055506001016103da565b5090565b6000610409610404846105d9565b6105b4565b90508281526020810184848401111561042557610424610887565b5b6104308482856106dc565b509392505050565b600081359050610447816108a7565b92915050565b60008135905061045c816108be565b92915050565b600082601f83011261047757610476610882565b5b81356104878482602086016103f6565b91505092915050565b60008135905061049f816108d5565b92915050565b6000602082840312156104bb576104ba610891565b5b60006104c984828501610438565b91505092915050565b600080604083850312156104e9576104e8610891565b5b600083013567ffffffffffffffff8111156105075761050661088c565b5b61051385828601610462565b925050602083013567ffffffffffffffff8111156105345761053361088c565b5b61054085828601610462565b9150509250929050565b6000806040838503121561056157610560610891565b5b600061056f85828601610490565b92505060206105808582860161044d565b9150509250929050565b610593816106d2565b82525050565b60006020820190506105ae600083018461058a565b92915050565b60006105be6105cf565b90506105ca828261071d565b919050565b6000604051905090565b600067ffffffffffffffff8211156105f4576105f3610853565b5b6105fd82610896565b9050602081019050919050565b6000610615826106d2565b9150610620836106d2565b9250827fffffffffffffffffffffffffffffffffffffffffffffffffffffffffffffffff0382111561065557610654610797565b5b828201905092915050565b600061066b826106d2565b9150610676836106d2565b92508282101561068957610688610797565b5b828203905092915050565b600061069f826106b2565b9050919050565b60008115159050919050565b600073ffffffffffffffffffffffffffffffffffffffff82169050919050565b6000819050919050565b82818337600083830152505050565b6000600282049050600182168061070357607f821691505b60208210811415610717576107166107f5565b5b50919050565b61072682610896565b810181811067ffffffffffffffff8211171561074557610744610853565b5b80604052505050565b6000610759826106d2565b91507fffffffffffffffffffffffffffffffffffffffffffffffffffffffffffffffff82141561078c5761078b610797565b5b600182019050919050565b7f4e487b7100000000000000000000000000000000000000000000000000000000600052601160045260246000fd5b7f4e487b7100000000000000000000000000000000000000000000000000000000600052602160045260246000fd5b7f4e487b7100000000000000000000000000000000000000000000000000000000600052602260045260246000fd5b7f4e487b7100000000000000000000000000000000000000000000000000000000600052603260045260246000fd5b7f4e487b7100000000000000000000000000000000000000000000000000000000600052604160045260246000fd5b600080fd5b600080fd5b600080fd5b600080fd5b6000601f19601f8301169050919050565b6108b081610694565b81146108bb57600080fd5b50565b6108c7816106a6565b81146108d257600080fd5b50565b6108de816106d2565b81146108e957600080fd5b5056fea2646970667358221220eb998b0b22951c2690a4096bccdac2e1667b3fc79d4f95172e4716ef60197eb964736f6c63430008070033",
					"opcodes": "PUSH1 0x80 PUSH1 0x40 MSTORE CALLVALUE DUP1 ISZERO PUSH2 0x10 JUMPI PUSH1 0x0 DUP1 REVERT JUMPDEST POP PUSH2 0x922 DUP1 PUSH2 0x20 PUSH1 0x0 CODECOPY PUSH1 0x0 RETURN INVALID PUSH1 0x80 PUSH1 0x40 MSTORE CALLVALUE DUP1 ISZERO PUSH2 0x10 JUMPI PUSH1 0x0 DUP1 REVERT JUMPDEST POP PUSH1 0x4 CALLDATASIZE LT PUSH2 0x4C JUMPI PUSH1 0x0 CALLDATALOAD PUSH1 0xE0 SHR DUP1 PUSH4 0x90D23B9 EQ PUSH2 0x51 JUMPI DUP1 PUSH4 0x5A79E339 EQ PUSH2 0x6D JUMPI DUP1 PUSH4 0x807C6683 EQ PUSH2 0x8B JUMPI DUP1 PUSH4 0x9D79A9EB EQ PUSH2 0xA7 JUMPI JUMPDEST PUSH1 0x0 DUP1 REVERT JUMPDEST PUSH2 0x6B PUSH1 0x4 DUP1 CALLDATASIZE SUB DUP2 ADD SWAP1 PUSH2 0x66 SWAP2 SWAP1 PUSH2 0x4A5 JUMP JUMPDEST PUSH2 0xC3 JUMP JUMPDEST STOP JUMPDEST PUSH2 0x75 PUSH2 0x129 JUMP JUMPDEST PUSH1 0x40 MLOAD PUSH2 0x82 SWAP2 SWAP1 PUSH2 0x599 JUMP JUMPDEST PUSH1 0x40 MLOAD DUP1 SWAP2 SUB SWAP1 RETURN JUMPDEST PUSH2 0xA5 PUSH1 0x4 DUP1 CALLDATASIZE SUB DUP2 ADD SWAP1 PUSH2 0xA0 SWAP2 SWAP1 PUSH2 0x4D2 JUMP JUMPDEST PUSH2 0x135 JUMP JUMPDEST STOP JUMPDEST PUSH2 0xC1 PUSH1 0x4 DUP1 CALLDATASIZE SUB DUP2 ADD SWAP1 PUSH2 0xBC SWAP2 SWAP1 PUSH2 0x54A JUMP JUMPDEST PUSH2 0x2B5 JUMP JUMPDEST STOP JUMPDEST PUSH1 0x1 DUP2 SWAP1 DUP1 PUSH1 0x1 DUP2 SLOAD ADD DUP1 DUP3 SSTORE DUP1 SWAP2 POP POP PUSH1 0x1 SWAP1 SUB SWAP1 PUSH1 0x0 MSTORE PUSH1 0x20 PUSH1 0x0 KECCAK256 ADD PUSH1 0x0 SWAP1 SWAP2 SWAP1 SWAP2 SWAP1 SWAP2 PUSH2 0x100 EXP DUP2 SLOAD DUP2 PUSH20 0xFFFFFFFFFFFFFFFFFFFFFFFFFFFFFFFFFFFFFFFF MUL NOT AND SWAP1 DUP4 PUSH20 0xFFFFFFFFFFFFFFFFFFFFFFFFFFFFFFFFFFFFFFFF AND MUL OR SWAP1 SSTORE POP POP JUMP JUMPDEST PUSH1 0x0 PUSH1 0x1 DUP1 SLOAD SWAP1 POP POP SWAP1 JUMP JUMPDEST PUSH1 0x0 PUSH1 0x40 MLOAD DUP1 PUSH2 0x100 ADD PUSH1 0x40 MSTORE DUP1 PUSH1 0x1 PUSH1 0x0 DUP1 SLOAD SWAP1 POP PUSH2 0x155 SWAP2 SWAP1 PUSH2 0x60A JUMP JUMPDEST DUP2 MSTORE PUSH1 0x20 ADD CALLER PUSH20 0xFFFFFFFFFFFFFFFFFFFFFFFFFFFFFFFFFFFFFFFF AND DUP2 MSTORE PUSH1 0x20 ADD DUP5 DUP2 MSTORE PUSH1 0x20 ADD DUP4 DUP2 MSTORE PUSH1 0x20 ADD PUSH1 0x0 DUP2 MSTORE PUSH1 0x20 ADD PUSH1 0x0 DUP2 MSTORE PUSH1 0x20 ADD TIMESTAMP DUP2 MSTORE PUSH1 0x20 ADD PUSH1 0x0 PUSH1 0x3 DUP2 GT ISZERO PUSH2 0x1AA JUMPI PUSH2 0x1A9 PUSH2 0x7C6 JUMP JUMPDEST JUMPDEST DUP2 MSTORE POP SWAP1 DUP1 PUSH1 0x1 DUP2 SLOAD ADD DUP1 DUP3 SSTORE DUP1 SWAP2 POP POP PUSH1 0x1 SWAP1 SUB SWAP1 PUSH1 0x0 MSTORE PUSH1 0x20 PUSH1 0x0 KECCAK256 SWAP1 PUSH1 0x8 MUL ADD PUSH1 0x0 SWAP1 SWAP2 SWAP1 SWAP2 SWAP1 SWAP2 POP PUSH1 0x0 DUP3 ADD MLOAD DUP2 PUSH1 0x0 ADD SSTORE PUSH1 0x20 DUP3 ADD MLOAD DUP2 PUSH1 0x1 ADD PUSH1 0x0 PUSH2 0x100 EXP DUP2 SLOAD DUP2 PUSH20 0xFFFFFFFFFFFFFFFFFFFFFFFFFFFFFFFFFFFFFFFF MUL NOT AND SWAP1 DUP4 PUSH20 0xFFFFFFFFFFFFFFFFFFFFFFFFFFFFFFFFFFFFFFFF AND MUL OR SWAP1 SSTORE POP PUSH1 0x40 DUP3 ADD MLOAD DUP2 PUSH1 0x2 ADD SWAP1 DUP1 MLOAD SWAP1 PUSH1 0x20 ADD SWAP1 PUSH2 0x243 SWAP3 SWAP2 SWAP1 PUSH2 0x353 JUMP JUMPDEST POP PUSH1 0x60 DUP3 ADD MLOAD DUP2 PUSH1 0x3 ADD SWAP1 DUP1 MLOAD SWAP1 PUSH1 0x20 ADD SWAP1 PUSH2 0x260 SWAP3 SWAP2 SWAP1 PUSH2 0x353 JUMP JUMPDEST POP PUSH1 0x80 DUP3 ADD MLOAD DUP2 PUSH1 0x4 ADD SSTORE PUSH1 0xA0 DUP3 ADD MLOAD DUP2 PUSH1 0x5 ADD SSTORE PUSH1 0xC0 DUP3 ADD MLOAD DUP2 PUSH1 0x6 ADD SSTORE PUSH1 0xE0 DUP3 ADD MLOAD DUP2 PUSH1 0x7 ADD PUSH1 0x0 PUSH2 0x100 EXP DUP2 SLOAD DUP2 PUSH1 0xFF MUL NOT AND SWAP1 DUP4 PUSH1 0x3 DUP2 GT ISZERO PUSH2 0x2AA JUMPI PUSH2 0x2A9 PUSH2 0x7C6 JUMP JUMPDEST JUMPDEST MUL OR SWAP1 SSTORE POP POP POP POP POP JUMP JUMPDEST DUP1 ISZERO PUSH2 0x307 JUMPI PUSH1 0x0 PUSH1 0x1 DUP4 PUSH2 0x2CA SWAP2 SWAP1 PUSH2 0x660 JUMP JUMPDEST DUP2 SLOAD DUP2 LT PUSH2 0x2DB JUMPI PUSH2 0x2DA PUSH2 0x824 JUMP JUMPDEST JUMPDEST SWAP1 PUSH1 0x0 MSTORE PUSH1 0x20 PUSH1 0x0 KECCAK256 SWAP1 PUSH1 0x8 MUL ADD PUSH1 0x4 ADD PUSH1 0x0 DUP2 SLOAD DUP1 SWAP3 SWAP2 SWAP1 PUSH2 0x2FD SWAP1 PUSH2 0x74E JUMP JUMPDEST SWAP2 SWAP1 POP SSTORE POP PUSH2 0x34F JUMP JUMPDEST PUSH1 0x0 PUSH1 0x1 DUP4 PUSH2 0x316 SWAP2 SWAP1 PUSH2 0x660 JUMP JUMPDEST DUP2 SLOAD DUP2 LT PUSH2 0x327 JUMPI PUSH2 0x326 PUSH2 0x824 JUMP JUMPDEST JUMPDEST SWAP1 PUSH1 0x0 MSTORE PUSH1 0x20 PUSH1 0x0 KECCAK256 SWAP1 PUSH1 0x8 MUL ADD PUSH1 0x5 ADD PUSH1 0x0 DUP2 SLOAD DUP1 SWAP3 SWAP2 SWAP1 PUSH2 0x349 SWAP1 PUSH2 0x74E JUMP JUMPDEST SWAP2 SWAP1 POP SSTORE POP JUMPDEST POP POP JUMP JUMPDEST DUP3 DUP1 SLOAD PUSH2 0x35F SWAP1 PUSH2 0x6EB JUMP JUMPDEST SWAP1 PUSH1 0x0 MSTORE PUSH1 0x20 PUSH1 0x0 KECCAK256 SWAP1 PUSH1 0x1F ADD PUSH1 0x20 SWAP1 DIV DUP2 ADD SWAP3 DUP3 PUSH2 0x381 JUMPI PUSH1 0x0 DUP6 SSTORE PUSH2 0x3C8 JUMP JUMPDEST DUP3 PUSH1 0x1F LT PUSH2 0x39A JUMPI DUP1 MLOAD PUSH1 0xFF NOT AND DUP4 DUP1 ADD OR DUP6 SSTORE PUSH2 0x3C8 JUMP JUMPDEST DUP3 DUP1 ADD PUSH1 0x1 ADD DUP6 SSTORE DUP3 ISZERO PUSH2 0x3C8 JUMPI SWAP2 DUP3 ADD JUMPDEST DUP3 DUP2 GT ISZERO PUSH2 0x3C7 JUMPI DUP3 MLOAD DUP3 SSTORE SWAP2 PUSH1 0x20 ADD SWAP2 SWAP1 PUSH1 0x1 ADD SWAP1 PUSH2 0x3AC JUMP JUMPDEST JUMPDEST POP SWAP1 POP PUSH2 0x3D5 SWAP2 SWAP1 PUSH2 0x3D9 JUMP JUMPDEST POP SWAP1 JUMP JUMPDEST JUMPDEST DUP1 DUP3 GT ISZERO PUSH2 0x3F2 JUMPI PUSH1 0x0 DUP2 PUSH1 0x0 SWAP1 SSTORE POP PUSH1 0x1 ADD PUSH2 0x3DA JUMP JUMPDEST POP SWAP1 JUMP JUMPDEST PUSH1 0x0 PUSH2 0x409 PUSH2 0x404 DUP5 PUSH2 0x5D9 JUMP JUMPDEST PUSH2 0x5B4 JUMP JUMPDEST SWAP1 POP DUP3 DUP2 MSTORE PUSH1 0x20 DUP2 ADD DUP5 DUP5 DUP5 ADD GT ISZERO PUSH2 0x425 JUMPI PUSH2 0x424 PUSH2 0x887 JUMP JUMPDEST JUMPDEST PUSH2 0x430 DUP5 DUP3 DUP6 PUSH2 0x6DC JUMP JUMPDEST POP SWAP4 SWAP3 POP POP POP JUMP JUMPDEST PUSH1 0x0 DUP2 CALLDATALOAD SWAP1 POP PUSH2 0x447 DUP2 PUSH2 0x8A7 JUMP JUMPDEST SWAP3 SWAP2 POP POP JUMP JUMPDEST PUSH1 0x0 DUP2 CALLDATALOAD SWAP1 POP PUSH2 0x45C DUP2 PUSH2 0x8BE JUMP JUMPDEST SWAP3 SWAP2 POP POP JUMP JUMPDEST PUSH1 0x0 DUP3 PUSH1 0x1F DUP4 ADD SLT PUSH2 0x477 JUMPI PUSH2 0x476 PUSH2 0x882 JUMP JUMPDEST JUMPDEST DUP2 CALLDATALOAD PUSH2 0x487 DUP5 DUP3 PUSH1 0x20 DUP7 ADD PUSH2 0x3F6 JUMP JUMPDEST SWAP2 POP POP SWAP3 SWAP2 POP POP JUMP JUMPDEST PUSH1 0x0 DUP2 CALLDATALOAD SWAP1 POP PUSH2 0x49F DUP2 PUSH2 0x8D5 JUMP JUMPDEST SWAP3 SWAP2 POP POP JUMP JUMPDEST PUSH1 0x0 PUSH1 0x20 DUP3 DUP5 SUB SLT ISZERO PUSH2 0x4BB JUMPI PUSH2 0x4BA PUSH2 0x891 JUMP JUMPDEST JUMPDEST PUSH1 0x0 PUSH2 0x4C9 DUP5 DUP3 DUP6 ADD PUSH2 0x438 JUMP JUMPDEST SWAP2 POP POP SWAP3 SWAP2 POP POP JUMP JUMPDEST PUSH1 0x0 DUP1 PUSH1 0x40 DUP4 DUP6 SUB SLT ISZERO PUSH2 0x4E9 JUMPI PUSH2 0x4E8 PUSH2 0x891 JUMP JUMPDEST JUMPDEST PUSH1 0x0 DUP4 ADD CALLDATALOAD PUSH8 0xFFFFFFFFFFFFFFFF DUP2 GT ISZERO PUSH2 0x507 JUMPI PUSH2 0x506 PUSH2 0x88C JUMP JUMPDEST JUMPDEST PUSH2 0x513 DUP6 DUP3 DUP7 ADD PUSH2 0x462 JUMP JUMPDEST SWAP3 POP POP PUSH1 0x20 DUP4 ADD CALLDATALOAD PUSH8 0xFFFFFFFFFFFFFFFF DUP2 GT ISZERO PUSH2 0x534 JUMPI PUSH2 0x533 PUSH2 0x88C JUMP JUMPDEST JUMPDEST PUSH2 0x540 DUP6 DUP3 DUP7 ADD PUSH2 0x462 JUMP JUMPDEST SWAP2 POP POP SWAP3 POP SWAP3 SWAP1 POP JUMP JUMPDEST PUSH1 0x0 DUP1 PUSH1 0x40 DUP4 DUP6 SUB SLT ISZERO PUSH2 0x561 JUMPI PUSH2 0x560 PUSH2 0x891 JUMP JUMPDEST JUMPDEST PUSH1 0x0 PUSH2 0x56F DUP6 DUP3 DUP7 ADD PUSH2 0x490 JUMP JUMPDEST SWAP3 POP POP PUSH1 0x20 PUSH2 0x580 DUP6 DUP3 DUP7 ADD PUSH2 0x44D JUMP JUMPDEST SWAP2 POP POP SWAP3 POP SWAP3 SWAP1 POP JUMP JUMPDEST PUSH2 0x593 DUP2 PUSH2 0x6D2 JUMP JUMPDEST DUP3 MSTORE POP POP JUMP JUMPDEST PUSH1 0x0 PUSH1 0x20 DUP3 ADD SWAP1 POP PUSH2 0x5AE PUSH1 0x0 DUP4 ADD DUP5 PUSH2 0x58A JUMP JUMPDEST SWAP3 SWAP2 POP POP JUMP JUMPDEST PUSH1 0x0 PUSH2 0x5BE PUSH2 0x5CF JUMP JUMPDEST SWAP1 POP PUSH2 0x5CA DUP3 DUP3 PUSH2 0x71D JUMP JUMPDEST SWAP2 SWAP1 POP JUMP JUMPDEST PUSH1 0x0 PUSH1 0x40 MLOAD SWAP1 POP SWAP1 JUMP JUMPDEST PUSH1 0x0 PUSH8 0xFFFFFFFFFFFFFFFF DUP3 GT ISZERO PUSH2 0x5F4 JUMPI PUSH2 0x5F3 PUSH2 0x853 JUMP JUMPDEST JUMPDEST PUSH2 0x5FD DUP3 PUSH2 0x896 JUMP JUMPDEST SWAP1 POP PUSH1 0x20 DUP2 ADD SWAP1 POP SWAP2 SWAP1 POP JUMP JUMPDEST PUSH1 0x0 PUSH2 0x615 DUP3 PUSH2 0x6D2 JUMP JUMPDEST SWAP2 POP PUSH2 0x620 DUP4 PUSH2 0x6D2 JUMP JUMPDEST SWAP3 POP DUP3 PUSH32 0xFFFFFFFFFFFFFFFFFFFFFFFFFFFFFFFFFFFFFFFFFFFFFFFFFFFFFFFFFFFFFFFF SUB DUP3 GT ISZERO PUSH2 0x655 JUMPI PUSH2 0x654 PUSH2 0x797 JUMP JUMPDEST JUMPDEST DUP3 DUP3 ADD SWAP1 POP SWAP3 SWAP2 POP POP JUMP JUMPDEST PUSH1 0x0 PUSH2 0x66B DUP3 PUSH2 0x6D2 JUMP JUMPDEST SWAP2 POP PUSH2 0x676 DUP4 PUSH2 0x6D2 JUMP JUMPDEST SWAP3 POP DUP3 DUP3 LT ISZERO PUSH2 0x689 JUMPI PUSH2 0x688 PUSH2 0x797 JUMP JUMPDEST JUMPDEST DUP3 DUP3 SUB SWAP1 POP SWAP3 SWAP2 POP POP JUMP JUMPDEST PUSH1 0x0 PUSH2 0x69F DUP3 PUSH2 0x6B2 JUMP JUMPDEST SWAP1 POP SWAP2 SWAP1 POP JUMP JUMPDEST PUSH1 0x0 DUP2 ISZERO ISZERO SWAP1 POP SWAP2 SWAP1 POP JUMP JUMPDEST PUSH1 0x0 PUSH20 0xFFFFFFFFFFFFFFFFFFFFFFFFFFFFFFFFFFFFFFFF DUP3 AND SWAP1 POP SWAP2 SWAP1 POP JUMP JUMPDEST PUSH1 0x0 DUP2 SWAP1 POP SWAP2 SWAP1 POP JUMP JUMPDEST DUP3 DUP2 DUP4 CALLDATACOPY PUSH1 0x0 DUP4 DUP4 ADD MSTORE POP POP POP JUMP JUMPDEST PUSH1 0x0 PUSH1 0x2 DUP3 DIV SWAP1 POP PUSH1 0x1 DUP3 AND DUP1 PUSH2 0x703 JUMPI PUSH1 0x7F DUP3 AND SWAP2 POP JUMPDEST PUSH1 0x20 DUP3 LT DUP2 EQ ISZERO PUSH2 0x717 JUMPI PUSH2 0x716 PUSH2 0x7F5 JUMP JUMPDEST JUMPDEST POP SWAP2 SWAP1 POP JUMP JUMPDEST PUSH2 0x726 DUP3 PUSH2 0x896 JUMP JUMPDEST DUP2 ADD DUP2 DUP2 LT PUSH8 0xFFFFFFFFFFFFFFFF DUP3 GT OR ISZERO PUSH2 0x745 JUMPI PUSH2 0x744 PUSH2 0x853 JUMP JUMPDEST JUMPDEST DUP1 PUSH1 0x40 MSTORE POP POP POP JUMP JUMPDEST PUSH1 0x0 PUSH2 0x759 DUP3 PUSH2 0x6D2 JUMP JUMPDEST SWAP2 POP PUSH32 0xFFFFFFFFFFFFFFFFFFFFFFFFFFFFFFFFFFFFFFFFFFFFFFFFFFFFFFFFFFFFFFFF DUP3 EQ ISZERO PUSH2 0x78C JUMPI PUSH2 0x78B PUSH2 0x797 JUMP JUMPDEST JUMPDEST PUSH1 0x1 DUP3 ADD SWAP1 POP SWAP2 SWAP1 POP JUMP JUMPDEST PUSH32 0x4E487B7100000000000000000000000000000000000000000000000000000000 PUSH1 0x0 MSTORE PUSH1 0x11 PUSH1 0x4 MSTORE PUSH1 0x24 PUSH1 0x0 REVERT JUMPDEST PUSH32 0x4E487B7100000000000000000000000000000000000000000000000000000000 PUSH1 0x0 MSTORE PUSH1 0x21 PUSH1 0x4 MSTORE PUSH1 0x24 PUSH1 0x0 REVERT JUMPDEST PUSH32 0x4E487B7100000000000000000000000000000000000000000000000000000000 PUSH1 0x0 MSTORE PUSH1 0x22 PUSH1 0x4 MSTORE PUSH1 0x24 PUSH1 0x0 REVERT JUMPDEST PUSH32 0x4E487B7100000000000000000000000000000000000000000000000000000000 PUSH1 0x0 MSTORE PUSH1 0x32 PUSH1 0x4 MSTORE PUSH1 0x24 PUSH1 0x0 REVERT JUMPDEST PUSH32 0x4E487B7100000000000000000000000000000000000000000000000000000000 PUSH1 0x0 MSTORE PUSH1 0x41 PUSH1 0x4 MSTORE PUSH1 0x24 PUSH1 0x0 REVERT JUMPDEST PUSH1 0x0 DUP1 REVERT JUMPDEST PUSH1 0x0 DUP1 REVERT JUMPDEST PUSH1 0x0 DUP1 REVERT JUMPDEST PUSH1 0x0 DUP1 REVERT JUMPDEST PUSH1 0x0 PUSH1 0x1F NOT PUSH1 0x1F DUP4 ADD AND SWAP1 POP SWAP2 SWAP1 POP JUMP JUMPDEST PUSH2 0x8B0 DUP2 PUSH2 0x694 JUMP JUMPDEST DUP2 EQ PUSH2 0x8BB JUMPI PUSH1 0x0 DUP1 REVERT JUMPDEST POP JUMP JUMPDEST PUSH2 0x8C7 DUP2 PUSH2 0x6A6 JUMP JUMPDEST DUP2 EQ PUSH2 0x8D2 JUMPI PUSH1 0x0 DUP1 REVERT JUMPDEST POP JUMP JUMPDEST PUSH2 0x8DE DUP2 PUSH2 0x6D2 JUMP JUMPDEST DUP2 EQ PUSH2 0x8E9 JUMPI PUSH1 0x0 DUP1 REVERT JUMPDEST POP JUMP INVALID LOG2 PUSH5 0x6970667358 0x22 SLT KECCAK256 0xEB SWAP10 DUP12 SIGNEXTEND 0x22 SWAP6 SHR 0x26 SWAP1 LOG4 MULMOD PUSH12 0xCCDAC2E1667B3FC79D4F9517 0x2E SELFBALANCE AND 0xEF PUSH1 0x19 PUSH31 0xB964736F6C6343000807003300000000000000000000000000000000000000 "
				},
				"gasEstimates": {
					"creation": {
						"codeDepositCost": "467600",
						"executionCost": "505",
						"totalCost": "468105"
					},
					"external": {
						"getBankslength()": "2442",
						"setBank(address)": "49012",
						"setPoll(string,string)": "infinite",
						"votePoll(uint256,bool)": "infinite"
					}
				},
				"methodIdentifiers": {
					"getBankslength()": "5a79e339",
					"setBank(address)": "090d23b9",
					"setPoll(string,string)": "807c6683",
					"votePoll(uint256,bool)": "9d79a9eb"
				}
			},
			"storageLayout": {
				"storage": [
					{
						"astId": 142,
						"contract": "contracts/test.sol:NTS",
						"label": "Polls",
						"offset": 0,
						"slot": "0",
						"type": "t_array(t_struct(poll)138_storage)dyn_storage"
					},
					{
						"astId": 146,
						"contract": "contracts/test.sol:NTS",
						"label": "banks",
						"offset": 0,
						"slot": "1",
						"type": "t_array(t_contract(Bank)120)dyn_storage"
					}
				],
				"types": {
					"t_address": {
						"encoding": "inplace",
						"label": "address",
						"numberOfBytes": "20"
					},
					"t_array(t_contract(Bank)120)dyn_storage": {
						"base": "t_contract(Bank)120",
						"encoding": "dynamic_array",
						"label": "contract Bank[]",
						"numberOfBytes": "32"
					},
					"t_array(t_struct(poll)138_storage)dyn_storage": {
						"base": "t_struct(poll)138_storage",
						"encoding": "dynamic_array",
						"label": "struct NTS.poll[]",
						"numberOfBytes": "32"
					},
					"t_contract(Bank)120": {
						"encoding": "inplace",
						"label": "contract Bank",
						"numberOfBytes": "20"
					},
					"t_enum(Status)156": {
						"encoding": "inplace",
						"label": "enum NTS.Status",
						"numberOfBytes": "1"
					},
					"t_string_storage": {
						"encoding": "bytes",
						"label": "string",
						"numberOfBytes": "32"
					},
					"t_struct(poll)138_storage": {
						"encoding": "inplace",
						"label": "struct NTS.poll",
						"members": [
							{
								"astId": 122,
								"contract": "contracts/test.sol:NTS",
								"label": "num",
								"offset": 0,
								"slot": "0",
								"type": "t_uint256"
							},
							{
								"astId": 124,
								"contract": "contracts/test.sol:NTS",
								"label": "preseneter",
								"offset": 0,
								"slot": "1",
								"type": "t_address"
							},
							{
								"astId": 126,
								"contract": "contracts/test.sol:NTS",
								"label": "title",
								"offset": 0,
								"slot": "2",
								"type": "t_string_storage"
							},
							{
								"astId": 128,
								"contract": "contracts/test.sol:NTS",
								"label": "content",
								"offset": 0,
								"slot": "3",
								"type": "t_string_storage"
							},
							{
								"astId": 130,
								"contract": "contracts/test.sol:NTS",
								"label": "pros",
								"offset": 0,
								"slot": "4",
								"type": "t_uint256"
							},
							{
								"astId": 132,
								"contract": "contracts/test.sol:NTS",
								"label": "cons",
								"offset": 0,
								"slot": "5",
								"type": "t_uint256"
							},
							{
								"astId": 134,
								"contract": "contracts/test.sol:NTS",
								"label": "startTime",
								"offset": 0,
								"slot": "6",
								"type": "t_uint256"
							},
							{
								"astId": 137,
								"contract": "contracts/test.sol:NTS",
								"label": "status",
								"offset": 0,
								"slot": "7",
								"type": "t_enum(Status)156"
							}
						],
						"numberOfBytes": "256"
					},
					"t_uint256": {
						"encoding": "inplace",
						"label": "uint256",
						"numberOfBytes": "32"
					}
				}
			},
			"userdoc": {
				"kind": "user",
				"methods": {},
				"version": 1
			}
		}
	}
}