{
	"data": {
		"bytecode": {
			"linkReferences": {},
			"object": "608060405234801561001057600080fd5b50610a96806100206000396000f3fe608060405234801561001057600080fd5b50600436106100415760003560e01c806302110d251461004657806320b2e7bf1461006257806358467dbc1461007e575b600080fd5b610060600480360381019061005b91906105db565b6100af565b005b61007c60048036038101906100779190610563565b6101c2565b005b61009860048036038101906100939190610563565b610225565b6040516100a692919061078f565b60405180910390f35b6000846040516100bf9190610778565b908152602001604051809103902060030160009054906101000a900460ff161561011e576040517f08c379a0000000000000000000000000000000000000000000000000000000008152600401610115906107df565b60405180910390fd5b60405180608001604052806101328561030d565b81526020018381526020018281526020016001151581525060008560405161015a9190610778565b908152602001604051809103902060008201518160000155602082015181600101908051906020019061018e9291906103fb565b506040820151816002015560608201518160030160006101000a81548160ff02191690831515021790555090505050505050565b6101cc828261031e565b6000826040516101dc9190610778565b90815260200160405180910390206000808201600090556001820160006102039190610481565b60028201600090556003820160006101000a81549060ff021916905550505050565b60606000610233848461031e565b6000846040516102439190610778565b90815260200160405180910390206001016000856040516102649190610778565b908152602001604051809103902060020154818054610282906108e8565b80601f01602080910402602001604051908101604052809291908181526020018280546102ae906108e8565b80156102fb5780601f106102d0576101008083540402835291602001916102fb565b820191906000526020600020905b8154815290600101906020018083116102de57829003601f168201915b50505050509150915091509250929050565b600081805190602001209050919050565b60008260405161032e9190610778565b908152602001604051809103902060030160009054906101000a900460ff1661038c576040517f08c379a0000000000000000000000000000000000000000000000000000000008152600401610383906107bf565b60405180910390fd5b6103958161030d565b6000836040516103a59190610778565b908152602001604051809103902060000154146103f7576040517f08c379a00000000000000000000000000000000000000000000000000000000081526004016103ee906107ff565b60405180910390fd5b5050565b828054610407906108e8565b90600052602060002090601f0160209004810192826104295760008555610470565b82601f1061044257805160ff1916838001178555610470565b82800160010185558215610470579182015b8281111561046f578251825591602001919060010190610454565b5b50905061047d91906104c1565b5090565b50805461048d906108e8565b6000825580601f1061049f57506104be565b601f0160209004906000526020600020908101906104bd91906104c1565b5b50565b5b808211156104da5760008160009055506001016104c2565b5090565b60006104f16104ec84610844565b61081f565b90508281526020810184848401111561050d5761050c6109ae565b5b6105188482856108a6565b509392505050565b600082601f830112610535576105346109a9565b5b81356105458482602086016104de565b91505092915050565b60008135905061055d81610a49565b92915050565b6000806040838503121561057a576105796109b8565b5b600083013567ffffffffffffffff811115610598576105976109b3565b5b6105a485828601610520565b925050602083013567ffffffffffffffff8111156105c5576105c46109b3565b5b6105d185828601610520565b9150509250929050565b600080600080608085870312156105f5576105f46109b8565b5b600085013567ffffffffffffffff811115610613576106126109b3565b5b61061f87828801610520565b945050602085013567ffffffffffffffff8111156106405761063f6109b3565b5b61064c87828801610520565b935050604085013567ffffffffffffffff81111561066d5761066c6109b3565b5b61067987828801610520565b925050606061068a8782880161054e565b91505092959194509250565b60006106a182610875565b6106ab8185610880565b93506106bb8185602086016108b5565b6106c4816109bd565b840191505092915050565b60006106da82610875565b6106e48185610891565b93506106f48185602086016108b5565b80840191505092915050565b600061070d600d83610880565b9150610718826109ce565b602082019050919050565b6000610730601883610880565b915061073b826109f7565b602082019050919050565b6000610753601283610880565b915061075e82610a20565b602082019050919050565b6107728161089c565b82525050565b600061078482846106cf565b915081905092915050565b600060408201905081810360008301526107a98185610696565b90506107b86020830184610769565b9392505050565b600060208201905081810360008301526107d881610700565b9050919050565b600060208201905081810360008301526107f881610723565b9050919050565b6000602082019050818103600083015261081881610746565b9050919050565b600061082961083a565b9050610835828261091a565b919050565b6000604051905090565b600067ffffffffffffffff82111561085f5761085e61097a565b5b610868826109bd565b9050602081019050919050565b600081519050919050565b600082825260208201905092915050565b600081905092915050565b6000819050919050565b82818337600083830152505050565b60005b838110156108d35780820151818401526020810190506108b8565b838111156108e2576000848401525b50505050565b6000600282049050600182168061090057607f821691505b602082108114156109145761091361094b565b5b50919050565b610923826109bd565b810181811067ffffffffffffffff821117156109425761094161097a565b5b80604052505050565b7f4e487b7100000000000000000000000000000000000000000000000000000000600052602260045260246000fd5b7f4e487b7100000000000000000000000000000000000000000000000000000000600052604160045260246000fd5b600080fd5b600080fd5b600080fd5b600080fd5b6000601f19601f8301169050919050565b7f6e6f207265676973746572656400000000000000000000000000000000000000600082015250565b7f696420697320616c726561647920726567697374657265640000000000000000600082015250565b7f70617373776f726420696e636f72726563740000000000000000000000000000600082015250565b610a528161089c565b8114610a5d57600080fd5b5056fea2646970667358221220ec74543d7db480cc8c0409743d3f07f7d81503c6d5a7994c9617e60b56ef3eed64736f6c63430008070033",
			"opcodes": "PUSH1 0x80 PUSH1 0x40 MSTORE CALLVALUE DUP1 ISZERO PUSH2 0x10 JUMPI PUSH1 0x0 DUP1 REVERT JUMPDEST POP PUSH2 0xA96 DUP1 PUSH2 0x20 PUSH1 0x0 CODECOPY PUSH1 0x0 RETURN INVALID PUSH1 0x80 PUSH1 0x40 MSTORE CALLVALUE DUP1 ISZERO PUSH2 0x10 JUMPI PUSH1 0x0 DUP1 REVERT JUMPDEST POP PUSH1 0x4 CALLDATASIZE LT PUSH2 0x41 JUMPI PUSH1 0x0 CALLDATALOAD PUSH1 0xE0 SHR DUP1 PUSH4 0x2110D25 EQ PUSH2 0x46 JUMPI DUP1 PUSH4 0x20B2E7BF EQ PUSH2 0x62 JUMPI DUP1 PUSH4 0x58467DBC EQ PUSH2 0x7E JUMPI JUMPDEST PUSH1 0x0 DUP1 REVERT JUMPDEST PUSH2 0x60 PUSH1 0x4 DUP1 CALLDATASIZE SUB DUP2 ADD SWAP1 PUSH2 0x5B SWAP2 SWAP1 PUSH2 0x5DB JUMP JUMPDEST PUSH2 0xAF JUMP JUMPDEST STOP JUMPDEST PUSH2 0x7C PUSH1 0x4 DUP1 CALLDATASIZE SUB DUP2 ADD SWAP1 PUSH2 0x77 SWAP2 SWAP1 PUSH2 0x563 JUMP JUMPDEST PUSH2 0x1C2 JUMP JUMPDEST STOP JUMPDEST PUSH2 0x98 PUSH1 0x4 DUP1 CALLDATASIZE SUB DUP2 ADD SWAP1 PUSH2 0x93 SWAP2 SWAP1 PUSH2 0x563 JUMP JUMPDEST PUSH2 0x225 JUMP JUMPDEST PUSH1 0x40 MLOAD PUSH2 0xA6 SWAP3 SWAP2 SWAP1 PUSH2 0x78F JUMP JUMPDEST PUSH1 0x40 MLOAD DUP1 SWAP2 SUB SWAP1 RETURN JUMPDEST PUSH1 0x0 DUP5 PUSH1 0x40 MLOAD PUSH2 0xBF SWAP2 SWAP1 PUSH2 0x778 JUMP JUMPDEST SWAP1 DUP2 MSTORE PUSH1 0x20 ADD PUSH1 0x40 MLOAD DUP1 SWAP2 SUB SWAP1 KECCAK256 PUSH1 0x3 ADD PUSH1 0x0 SWAP1 SLOAD SWAP1 PUSH2 0x100 EXP SWAP1 DIV PUSH1 0xFF AND ISZERO PUSH2 0x11E JUMPI PUSH1 0x40 MLOAD PUSH32 0x8C379A000000000000000000000000000000000000000000000000000000000 DUP2 MSTORE PUSH1 0x4 ADD PUSH2 0x115 SWAP1 PUSH2 0x7DF JUMP JUMPDEST PUSH1 0x40 MLOAD DUP1 SWAP2 SUB SWAP1 REVERT JUMPDEST PUSH1 0x40 MLOAD DUP1 PUSH1 0x80 ADD PUSH1 0x40 MSTORE DUP1 PUSH2 0x132 DUP6 PUSH2 0x30D JUMP JUMPDEST DUP2 MSTORE PUSH1 0x20 ADD DUP4 DUP2 MSTORE PUSH1 0x20 ADD DUP3 DUP2 MSTORE PUSH1 0x20 ADD PUSH1 0x1 ISZERO ISZERO DUP2 MSTORE POP PUSH1 0x0 DUP6 PUSH1 0x40 MLOAD PUSH2 0x15A SWAP2 SWAP1 PUSH2 0x778 JUMP JUMPDEST SWAP1 DUP2 MSTORE PUSH1 0x20 ADD PUSH1 0x40 MLOAD DUP1 SWAP2 SUB SWAP1 KECCAK256 PUSH1 0x0 DUP3 ADD MLOAD DUP2 PUSH1 0x0 ADD SSTORE PUSH1 0x20 DUP3 ADD MLOAD DUP2 PUSH1 0x1 ADD SWAP1 DUP1 MLOAD SWAP1 PUSH1 0x20 ADD SWAP1 PUSH2 0x18E SWAP3 SWAP2 SWAP1 PUSH2 0x3FB JUMP JUMPDEST POP PUSH1 0x40 DUP3 ADD MLOAD DUP2 PUSH1 0x2 ADD SSTORE PUSH1 0x60 DUP3 ADD MLOAD DUP2 PUSH1 0x3 ADD PUSH1 0x0 PUSH2 0x100 EXP DUP2 SLOAD DUP2 PUSH1 0xFF MUL NOT AND SWAP1 DUP4 ISZERO ISZERO MUL OR SWAP1 SSTORE POP SWAP1 POP POP POP POP POP POP JUMP JUMPDEST PUSH2 0x1CC DUP3 DUP3 PUSH2 0x31E JUMP JUMPDEST PUSH1 0x0 DUP3 PUSH1 0x40 MLOAD PUSH2 0x1DC SWAP2 SWAP1 PUSH2 0x778 JUMP JUMPDEST SWAP1 DUP2 MSTORE PUSH1 0x20 ADD PUSH1 0x40 MLOAD DUP1 SWAP2 SUB SWAP1 KECCAK256 PUSH1 0x0 DUP1 DUP3 ADD PUSH1 0x0 SWAP1 SSTORE PUSH1 0x1 DUP3 ADD PUSH1 0x0 PUSH2 0x203 SWAP2 SWAP1 PUSH2 0x481 JUMP JUMPDEST PUSH1 0x2 DUP3 ADD PUSH1 0x0 SWAP1 SSTORE PUSH1 0x3 DUP3 ADD PUSH1 0x0 PUSH2 0x100 EXP DUP2 SLOAD SWAP1 PUSH1 0xFF MUL NOT AND SWAP1 SSTORE POP POP POP POP JUMP JUMPDEST PUSH1 0x60 PUSH1 0x0 PUSH2 0x233 DUP5 DUP5 PUSH2 0x31E JUMP JUMPDEST PUSH1 0x0 DUP5 PUSH1 0x40 MLOAD PUSH2 0x243 SWAP2 SWAP1 PUSH2 0x778 JUMP JUMPDEST SWAP1 DUP2 MSTORE PUSH1 0x20 ADD PUSH1 0x40 MLOAD DUP1 SWAP2 SUB SWAP1 KECCAK256 PUSH1 0x1 ADD PUSH1 0x0 DUP6 PUSH1 0x40 MLOAD PUSH2 0x264 SWAP2 SWAP1 PUSH2 0x778 JUMP JUMPDEST SWAP1 DUP2 MSTORE PUSH1 0x20 ADD PUSH1 0x40 MLOAD DUP1 SWAP2 SUB SWAP1 KECCAK256 PUSH1 0x2 ADD SLOAD DUP2 DUP1 SLOAD PUSH2 0x282 SWAP1 PUSH2 0x8E8 JUMP JUMPDEST DUP1 PUSH1 0x1F ADD PUSH1 0x20 DUP1 SWAP2 DIV MUL PUSH1 0x20 ADD PUSH1 0x40 MLOAD SWAP1 DUP2 ADD PUSH1 0x40 MSTORE DUP1 SWAP3 SWAP2 SWAP1 DUP2 DUP2 MSTORE PUSH1 0x20 ADD DUP3 DUP1 SLOAD PUSH2 0x2AE SWAP1 PUSH2 0x8E8 JUMP JUMPDEST DUP1 ISZERO PUSH2 0x2FB JUMPI DUP1 PUSH1 0x1F LT PUSH2 0x2D0 JUMPI PUSH2 0x100 DUP1 DUP4 SLOAD DIV MUL DUP4 MSTORE SWAP2 PUSH1 0x20 ADD SWAP2 PUSH2 0x2FB JUMP JUMPDEST DUP3 ADD SWAP2 SWAP1 PUSH1 0x0 MSTORE PUSH1 0x20 PUSH1 0x0 KECCAK256 SWAP1 JUMPDEST DUP2 SLOAD DUP2 MSTORE SWAP1 PUSH1 0x1 ADD SWAP1 PUSH1 0x20 ADD DUP1 DUP4 GT PUSH2 0x2DE JUMPI DUP3 SWAP1 SUB PUSH1 0x1F AND DUP3 ADD SWAP2 JUMPDEST POP POP POP POP POP SWAP2 POP SWAP2 POP SWAP2 POP SWAP3 POP SWAP3 SWAP1 POP JUMP JUMPDEST PUSH1 0x0 DUP2 DUP1 MLOAD SWAP1 PUSH1 0x20 ADD KECCAK256 SWAP1 POP SWAP2 SWAP1 POP JUMP JUMPDEST PUSH1 0x0 DUP3 PUSH1 0x40 MLOAD PUSH2 0x32E SWAP2 SWAP1 PUSH2 0x778 JUMP JUMPDEST SWAP1 DUP2 MSTORE PUSH1 0x20 ADD PUSH1 0x40 MLOAD DUP1 SWAP2 SUB SWAP1 KECCAK256 PUSH1 0x3 ADD PUSH1 0x0 SWAP1 SLOAD SWAP1 PUSH2 0x100 EXP SWAP1 DIV PUSH1 0xFF AND PUSH2 0x38C JUMPI PUSH1 0x40 MLOAD PUSH32 0x8C379A000000000000000000000000000000000000000000000000000000000 DUP2 MSTORE PUSH1 0x4 ADD PUSH2 0x383 SWAP1 PUSH2 0x7BF JUMP JUMPDEST PUSH1 0x40 MLOAD DUP1 SWAP2 SUB SWAP1 REVERT JUMPDEST PUSH2 0x395 DUP2 PUSH2 0x30D JUMP JUMPDEST PUSH1 0x0 DUP4 PUSH1 0x40 MLOAD PUSH2 0x3A5 SWAP2 SWAP1 PUSH2 0x778 JUMP JUMPDEST SWAP1 DUP2 MSTORE PUSH1 0x20 ADD PUSH1 0x40 MLOAD DUP1 SWAP2 SUB SWAP1 KECCAK256 PUSH1 0x0 ADD SLOAD EQ PUSH2 0x3F7 JUMPI PUSH1 0x40 MLOAD PUSH32 0x8C379A000000000000000000000000000000000000000000000000000000000 DUP2 MSTORE PUSH1 0x4 ADD PUSH2 0x3EE SWAP1 PUSH2 0x7FF JUMP JUMPDEST PUSH1 0x40 MLOAD DUP1 SWAP2 SUB SWAP1 REVERT JUMPDEST POP POP JUMP JUMPDEST DUP3 DUP1 SLOAD PUSH2 0x407 SWAP1 PUSH2 0x8E8 JUMP JUMPDEST SWAP1 PUSH1 0x0 MSTORE PUSH1 0x20 PUSH1 0x0 KECCAK256 SWAP1 PUSH1 0x1F ADD PUSH1 0x20 SWAP1 DIV DUP2 ADD SWAP3 DUP3 PUSH2 0x429 JUMPI PUSH1 0x0 DUP6 SSTORE PUSH2 0x470 JUMP JUMPDEST DUP3 PUSH1 0x1F LT PUSH2 0x442 JUMPI DUP1 MLOAD PUSH1 0xFF NOT AND DUP4 DUP1 ADD OR DUP6 SSTORE PUSH2 0x470 JUMP JUMPDEST DUP3 DUP1 ADD PUSH1 0x1 ADD DUP6 SSTORE DUP3 ISZERO PUSH2 0x470 JUMPI SWAP2 DUP3 ADD JUMPDEST DUP3 DUP2 GT ISZERO PUSH2 0x46F JUMPI DUP3 MLOAD DUP3 SSTORE SWAP2 PUSH1 0x20 ADD SWAP2 SWAP1 PUSH1 0x1 ADD SWAP1 PUSH2 0x454 JUMP JUMPDEST JUMPDEST POP SWAP1 POP PUSH2 0x47D SWAP2 SWAP1 PUSH2 0x4C1 JUMP JUMPDEST POP SWAP1 JUMP JUMPDEST POP DUP1 SLOAD PUSH2 0x48D SWAP1 PUSH2 0x8E8 JUMP JUMPDEST PUSH1 0x0 DUP3 SSTORE DUP1 PUSH1 0x1F LT PUSH2 0x49F JUMPI POP PUSH2 0x4BE JUMP JUMPDEST PUSH1 0x1F ADD PUSH1 0x20 SWAP1 DIV SWAP1 PUSH1 0x0 MSTORE PUSH1 0x20 PUSH1 0x0 KECCAK256 SWAP1 DUP2 ADD SWAP1 PUSH2 0x4BD SWAP2 SWAP1 PUSH2 0x4C1 JUMP JUMPDEST JUMPDEST POP JUMP JUMPDEST JUMPDEST DUP1 DUP3 GT ISZERO PUSH2 0x4DA JUMPI PUSH1 0x0 DUP2 PUSH1 0x0 SWAP1 SSTORE POP PUSH1 0x1 ADD PUSH2 0x4C2 JUMP JUMPDEST POP SWAP1 JUMP JUMPDEST PUSH1 0x0 PUSH2 0x4F1 PUSH2 0x4EC DUP5 PUSH2 0x844 JUMP JUMPDEST PUSH2 0x81F JUMP JUMPDEST SWAP1 POP DUP3 DUP2 MSTORE PUSH1 0x20 DUP2 ADD DUP5 DUP5 DUP5 ADD GT ISZERO PUSH2 0x50D JUMPI PUSH2 0x50C PUSH2 0x9AE JUMP JUMPDEST JUMPDEST PUSH2 0x518 DUP5 DUP3 DUP6 PUSH2 0x8A6 JUMP JUMPDEST POP SWAP4 SWAP3 POP POP POP JUMP JUMPDEST PUSH1 0x0 DUP3 PUSH1 0x1F DUP4 ADD SLT PUSH2 0x535 JUMPI PUSH2 0x534 PUSH2 0x9A9 JUMP JUMPDEST JUMPDEST DUP2 CALLDATALOAD PUSH2 0x545 DUP5 DUP3 PUSH1 0x20 DUP7 ADD PUSH2 0x4DE JUMP JUMPDEST SWAP2 POP POP SWAP3 SWAP2 POP POP JUMP JUMPDEST PUSH1 0x0 DUP2 CALLDATALOAD SWAP1 POP PUSH2 0x55D DUP2 PUSH2 0xA49 JUMP JUMPDEST SWAP3 SWAP2 POP POP JUMP JUMPDEST PUSH1 0x0 DUP1 PUSH1 0x40 DUP4 DUP6 SUB SLT ISZERO PUSH2 0x57A JUMPI PUSH2 0x579 PUSH2 0x9B8 JUMP JUMPDEST JUMPDEST PUSH1 0x0 DUP4 ADD CALLDATALOAD PUSH8 0xFFFFFFFFFFFFFFFF DUP2 GT ISZERO PUSH2 0x598 JUMPI PUSH2 0x597 PUSH2 0x9B3 JUMP JUMPDEST JUMPDEST PUSH2 0x5A4 DUP6 DUP3 DUP7 ADD PUSH2 0x520 JUMP JUMPDEST SWAP3 POP POP PUSH1 0x20 DUP4 ADD CALLDATALOAD PUSH8 0xFFFFFFFFFFFFFFFF DUP2 GT ISZERO PUSH2 0x5C5 JUMPI PUSH2 0x5C4 PUSH2 0x9B3 JUMP JUMPDEST JUMPDEST PUSH2 0x5D1 DUP6 DUP3 DUP7 ADD PUSH2 0x520 JUMP JUMPDEST SWAP2 POP POP SWAP3 POP SWAP3 SWAP1 POP JUMP JUMPDEST PUSH1 0x0 DUP1 PUSH1 0x0 DUP1 PUSH1 0x80 DUP6 DUP8 SUB SLT ISZERO PUSH2 0x5F5 JUMPI PUSH2 0x5F4 PUSH2 0x9B8 JUMP JUMPDEST JUMPDEST PUSH1 0x0 DUP6 ADD CALLDATALOAD PUSH8 0xFFFFFFFFFFFFFFFF DUP2 GT ISZERO PUSH2 0x613 JUMPI PUSH2 0x612 PUSH2 0x9B3 JUMP JUMPDEST JUMPDEST PUSH2 0x61F DUP8 DUP3 DUP9 ADD PUSH2 0x520 JUMP JUMPDEST SWAP5 POP POP PUSH1 0x20 DUP6 ADD CALLDATALOAD PUSH8 0xFFFFFFFFFFFFFFFF DUP2 GT ISZERO PUSH2 0x640 JUMPI PUSH2 0x63F PUSH2 0x9B3 JUMP JUMPDEST JUMPDEST PUSH2 0x64C DUP8 DUP3 DUP9 ADD PUSH2 0x520 JUMP JUMPDEST SWAP4 POP POP PUSH1 0x40 DUP6 ADD CALLDATALOAD PUSH8 0xFFFFFFFFFFFFFFFF DUP2 GT ISZERO PUSH2 0x66D JUMPI PUSH2 0x66C PUSH2 0x9B3 JUMP JUMPDEST JUMPDEST PUSH2 0x679 DUP8 DUP3 DUP9 ADD PUSH2 0x520 JUMP JUMPDEST SWAP3 POP POP PUSH1 0x60 PUSH2 0x68A DUP8 DUP3 DUP9 ADD PUSH2 0x54E JUMP JUMPDEST SWAP2 POP POP SWAP3 SWAP6 SWAP2 SWAP5 POP SWAP3 POP JUMP JUMPDEST PUSH1 0x0 PUSH2 0x6A1 DUP3 PUSH2 0x875 JUMP JUMPDEST PUSH2 0x6AB DUP2 DUP6 PUSH2 0x880 JUMP JUMPDEST SWAP4 POP PUSH2 0x6BB DUP2 DUP6 PUSH1 0x20 DUP7 ADD PUSH2 0x8B5 JUMP JUMPDEST PUSH2 0x6C4 DUP2 PUSH2 0x9BD JUMP JUMPDEST DUP5 ADD SWAP2 POP POP SWAP3 SWAP2 POP POP JUMP JUMPDEST PUSH1 0x0 PUSH2 0x6DA DUP3 PUSH2 0x875 JUMP JUMPDEST PUSH2 0x6E4 DUP2 DUP6 PUSH2 0x891 JUMP JUMPDEST SWAP4 POP PUSH2 0x6F4 DUP2 DUP6 PUSH1 0x20 DUP7 ADD PUSH2 0x8B5 JUMP JUMPDEST DUP1 DUP5 ADD SWAP2 POP POP SWAP3 SWAP2 POP POP JUMP JUMPDEST PUSH1 0x0 PUSH2 0x70D PUSH1 0xD DUP4 PUSH2 0x880 JUMP JUMPDEST SWAP2 POP PUSH2 0x718 DUP3 PUSH2 0x9CE JUMP JUMPDEST PUSH1 0x20 DUP3 ADD SWAP1 POP SWAP2 SWAP1 POP JUMP JUMPDEST PUSH1 0x0 PUSH2 0x730 PUSH1 0x18 DUP4 PUSH2 0x880 JUMP JUMPDEST SWAP2 POP PUSH2 0x73B DUP3 PUSH2 0x9F7 JUMP JUMPDEST PUSH1 0x20 DUP3 ADD SWAP1 POP SWAP2 SWAP1 POP JUMP JUMPDEST PUSH1 0x0 PUSH2 0x753 PUSH1 0x12 DUP4 PUSH2 0x880 JUMP JUMPDEST SWAP2 POP PUSH2 0x75E DUP3 PUSH2 0xA20 JUMP JUMPDEST PUSH1 0x20 DUP3 ADD SWAP1 POP SWAP2 SWAP1 POP JUMP JUMPDEST PUSH2 0x772 DUP2 PUSH2 0x89C JUMP JUMPDEST DUP3 MSTORE POP POP JUMP JUMPDEST PUSH1 0x0 PUSH2 0x784 DUP3 DUP5 PUSH2 0x6CF JUMP JUMPDEST SWAP2 POP DUP2 SWAP1 POP SWAP3 SWAP2 POP POP JUMP JUMPDEST PUSH1 0x0 PUSH1 0x40 DUP3 ADD SWAP1 POP DUP2 DUP2 SUB PUSH1 0x0 DUP4 ADD MSTORE PUSH2 0x7A9 DUP2 DUP6 PUSH2 0x696 JUMP JUMPDEST SWAP1 POP PUSH2 0x7B8 PUSH1 0x20 DUP4 ADD DUP5 PUSH2 0x769 JUMP JUMPDEST SWAP4 SWAP3 POP POP POP JUMP JUMPDEST PUSH1 0x0 PUSH1 0x20 DUP3 ADD SWAP1 POP DUP2 DUP2 SUB PUSH1 0x0 DUP4 ADD MSTORE PUSH2 0x7D8 DUP2 PUSH2 0x700 JUMP JUMPDEST SWAP1 POP SWAP2 SWAP1 POP JUMP JUMPDEST PUSH1 0x0 PUSH1 0x20 DUP3 ADD SWAP1 POP DUP2 DUP2 SUB PUSH1 0x0 DUP4 ADD MSTORE PUSH2 0x7F8 DUP2 PUSH2 0x723 JUMP JUMPDEST SWAP1 POP SWAP2 SWAP1 POP JUMP JUMPDEST PUSH1 0x0 PUSH1 0x20 DUP3 ADD SWAP1 POP DUP2 DUP2 SUB PUSH1 0x0 DUP4 ADD MSTORE PUSH2 0x818 DUP2 PUSH2 0x746 JUMP JUMPDEST SWAP1 POP SWAP2 SWAP1 POP JUMP JUMPDEST PUSH1 0x0 PUSH2 0x829 PUSH2 0x83A JUMP JUMPDEST SWAP1 POP PUSH2 0x835 DUP3 DUP3 PUSH2 0x91A JUMP JUMPDEST SWAP2 SWAP1 POP JUMP JUMPDEST PUSH1 0x0 PUSH1 0x40 MLOAD SWAP1 POP SWAP1 JUMP JUMPDEST PUSH1 0x0 PUSH8 0xFFFFFFFFFFFFFFFF DUP3 GT ISZERO PUSH2 0x85F JUMPI PUSH2 0x85E PUSH2 0x97A JUMP JUMPDEST JUMPDEST PUSH2 0x868 DUP3 PUSH2 0x9BD JUMP JUMPDEST SWAP1 POP PUSH1 0x20 DUP2 ADD SWAP1 POP SWAP2 SWAP1 POP JUMP JUMPDEST PUSH1 0x0 DUP2 MLOAD SWAP1 POP SWAP2 SWAP1 POP JUMP JUMPDEST PUSH1 0x0 DUP3 DUP3 MSTORE PUSH1 0x20 DUP3 ADD SWAP1 POP SWAP3 SWAP2 POP POP JUMP JUMPDEST PUSH1 0x0 DUP2 SWAP1 POP SWAP3 SWAP2 POP POP JUMP JUMPDEST PUSH1 0x0 DUP2 SWAP1 POP SWAP2 SWAP1 POP JUMP JUMPDEST DUP3 DUP2 DUP4 CALLDATACOPY PUSH1 0x0 DUP4 DUP4 ADD MSTORE POP POP POP JUMP JUMPDEST PUSH1 0x0 JUMPDEST DUP4 DUP2 LT ISZERO PUSH2 0x8D3 JUMPI DUP1 DUP3 ADD MLOAD DUP2 DUP5 ADD MSTORE PUSH1 0x20 DUP2 ADD SWAP1 POP PUSH2 0x8B8 JUMP JUMPDEST DUP4 DUP2 GT ISZERO PUSH2 0x8E2 JUMPI PUSH1 0x0 DUP5 DUP5 ADD MSTORE JUMPDEST POP POP POP POP JUMP JUMPDEST PUSH1 0x0 PUSH1 0x2 DUP3 DIV SWAP1 POP PUSH1 0x1 DUP3 AND DUP1 PUSH2 0x900 JUMPI PUSH1 0x7F DUP3 AND SWAP2 POP JUMPDEST PUSH1 0x20 DUP3 LT DUP2 EQ ISZERO PUSH2 0x914 JUMPI PUSH2 0x913 PUSH2 0x94B JUMP JUMPDEST JUMPDEST POP SWAP2 SWAP1 POP JUMP JUMPDEST PUSH2 0x923 DUP3 PUSH2 0x9BD JUMP JUMPDEST DUP2 ADD DUP2 DUP2 LT PUSH8 0xFFFFFFFFFFFFFFFF DUP3 GT OR ISZERO PUSH2 0x942 JUMPI PUSH2 0x941 PUSH2 0x97A JUMP JUMPDEST JUMPDEST DUP1 PUSH1 0x40 MSTORE POP POP POP JUMP JUMPDEST PUSH32 0x4E487B7100000000000000000000000000000000000000000000000000000000 PUSH1 0x0 MSTORE PUSH1 0x22 PUSH1 0x4 MSTORE PUSH1 0x24 PUSH1 0x0 REVERT JUMPDEST PUSH32 0x4E487B7100000000000000000000000000000000000000000000000000000000 PUSH1 0x0 MSTORE PUSH1 0x41 PUSH1 0x4 MSTORE PUSH1 0x24 PUSH1 0x0 REVERT JUMPDEST PUSH1 0x0 DUP1 REVERT JUMPDEST PUSH1 0x0 DUP1 REVERT JUMPDEST PUSH1 0x0 DUP1 REVERT JUMPDEST PUSH1 0x0 DUP1 REVERT JUMPDEST PUSH1 0x0 PUSH1 0x1F NOT PUSH1 0x1F DUP4 ADD AND SWAP1 POP SWAP2 SWAP1 POP JUMP JUMPDEST PUSH32 0x6E6F207265676973746572656400000000000000000000000000000000000000 PUSH1 0x0 DUP3 ADD MSTORE POP JUMP JUMPDEST PUSH32 0x696420697320616C726561647920726567697374657265640000000000000000 PUSH1 0x0 DUP3 ADD MSTORE POP JUMP JUMPDEST PUSH32 0x70617373776F726420696E636F72726563740000000000000000000000000000 PUSH1 0x0 DUP3 ADD MSTORE POP JUMP JUMPDEST PUSH2 0xA52 DUP2 PUSH2 0x89C JUMP JUMPDEST DUP2 EQ PUSH2 0xA5D JUMPI PUSH1 0x0 DUP1 REVERT JUMPDEST POP JUMP INVALID LOG2 PUSH5 0x6970667358 0x22 SLT KECCAK256 0xEC PUSH21 0x543D7DB480CC8C0409743D3F07F7D81503C6D5A799 0x4C SWAP7 OR 0xE6 SIGNEXTEND JUMP 0xEF RETURNDATACOPY 0xED PUSH5 0x736F6C6343 STOP ADDMOD SMOD STOP CALLER "
		},
		"gasEstimates": {
			"creation": {
				"codeDepositCost": "542000",
				"executionCost": "575",
				"totalCost": "542575"
			},
			"external": {
				"login(string,string)": "infinite",
				"register(string,string,string,uint256)": "infinite",
				"withdraw(string,string)": "infinite"
			},
			"internal": {
				"encrypt(string memory)": "infinite",
				"verifyAccount(string memory,string memory)": "infinite"
			}
		},
		"methodIdentifiers": {
			"login(string,string)": "58467dbc",
			"register(string,string,string,uint256)": "02110d25",
			"withdraw(string,string)": "20b2e7bf"
		}
	},
	"abi": [
		{
			"inputs": [
				{
					"internalType": "string",
					"name": "id",
					"type": "string"
				},
				{
					"internalType": "string",
					"name": "pw",
					"type": "string"
				}
			],
			"name": "login",
			"outputs": [
				{
					"internalType": "string",
					"name": "",
					"type": "string"
				},
				{
					"internalType": "uint256",
					"name": "",
					"type": "uint256"
				}
			],
			"stateMutability": "view",
			"type": "function"
		},
		{
			"inputs": [
				{
					"internalType": "string",
					"name": "id",
					"type": "string"
				},
				{
					"internalType": "string",
					"name": "pw",
					"type": "string"
				},
				{
					"internalType": "string",
					"name": "name",
					"type": "string"
				},
				{
					"internalType": "uint256",
					"name": "snum",
					"type": "uint256"
				}
			],
			"name": "register",
			"outputs": [],
			"stateMutability": "nonpayable",
			"type": "function"
		},
		{
			"inputs": [
				{
					"internalType": "string",
					"name": "id",
					"type": "string"
				},
				{
					"internalType": "string",
					"name": "pw",
					"type": "string"
				}
			],
			"name": "withdraw",
			"outputs": [],
			"stateMutability": "nonpayable",
			"type": "function"
		}
	]
}